{
  "_format": "hh-sol-artifact-1",
  "contractName": "EscrowDAO",
  "sourceName": "contracts/EscrowDAO.sol",
  "abi": [
    {
      "anonymous": false,
      "inputs": [
        {
          "indexed": false,
          "internalType": "address",
          "name": "",
          "type": "address"
        }
      ],
      "name": "EscrowCreated",
      "type": "event"
    },
    {
      "anonymous": false,
      "inputs": [
        {
          "indexed": false,
          "internalType": "address",
          "name": "member",
          "type": "address"
        },
        {
          "indexed": false,
          "internalType": "address",
          "name": "escrow",
          "type": "address"
        },
        {
          "indexed": false,
          "internalType": "enum EscrowDAO.Vote",
          "name": "vote",
          "type": "uint8"
        }
      ],
      "name": "MemberVoted",
      "type": "event"
    },
    {
      "inputs": [
        {
          "internalType": "address",
          "name": "",
          "type": "address"
        }
      ],
      "name": "attempts",
      "outputs": [
        {
          "internalType": "uint256",
          "name": "",
          "type": "uint256"
        }
      ],
      "stateMutability": "view",
      "type": "function"
    },
    {
      "inputs": [
        {
          "internalType": "address",
          "name": "",
          "type": "address"
        }
      ],
      "name": "balances",
      "outputs": [
        {
          "internalType": "uint256",
          "name": "",
          "type": "uint256"
        }
      ],
      "stateMutability": "view",
      "type": "function"
    },
    {
      "inputs": [
        {
          "internalType": "address",
          "name": "_address",
          "type": "address"
        }
      ],
      "name": "belongs",
      "outputs": [
        {
          "internalType": "bool",
          "name": "",
          "type": "bool"
        }
      ],
      "stateMutability": "view",
      "type": "function"
    },
    {
      "inputs": [
        {
          "internalType": "address payable",
          "name": "_beneficiary",
          "type": "address"
        }
      ],
      "name": "createEscrow",
      "outputs": [],
      "stateMutability": "payable",
      "type": "function"
    },
    {
      "inputs": [
        {
          "internalType": "uint256",
          "name": "",
          "type": "uint256"
        }
      ],
      "name": "escrows",
      "outputs": [
        {
          "internalType": "address payable",
          "name": "",
          "type": "address"
        }
      ],
      "stateMutability": "view",
      "type": "function"
    },
    {
      "inputs": [],
      "name": "getEscrows",
      "outputs": [
        {
          "internalType": "address payable[]",
          "name": "",
          "type": "address[]"
        }
      ],
      "stateMutability": "view",
      "type": "function"
    },
    {
      "inputs": [],
      "name": "getMembers",
      "outputs": [
        {
          "internalType": "address[]",
          "name": "",
          "type": "address[]"
        }
      ],
      "stateMutability": "view",
      "type": "function"
    },
    {
      "inputs": [
        {
          "internalType": "address",
          "name": "_escrow",
          "type": "address"
        }
      ],
      "name": "getNoVotes",
      "outputs": [
        {
          "internalType": "uint256",
          "name": "",
          "type": "uint256"
        }
      ],
      "stateMutability": "view",
      "type": "function"
    },
    {
      "inputs": [
        {
          "internalType": "address",
          "name": "_escrow",
          "type": "address"
        },
        {
          "internalType": "address",
          "name": "_member",
          "type": "address"
        }
      ],
      "name": "getVote",
      "outputs": [
        {
          "internalType": "enum EscrowDAO.Vote",
          "name": "",
          "type": "uint8"
        }
      ],
      "stateMutability": "view",
      "type": "function"
    },
    {
      "inputs": [
        {
          "internalType": "address",
          "name": "_escrow",
          "type": "address"
        }
      ],
      "name": "getVotes",
      "outputs": [
        {
          "internalType": "uint256",
          "name": "_yes",
          "type": "uint256"
        },
        {
          "internalType": "uint256",
          "name": "_no",
          "type": "uint256"
        }
      ],
      "stateMutability": "view",
      "type": "function"
    },
    {
      "inputs": [
        {
          "internalType": "address",
          "name": "_escrow",
          "type": "address"
        }
      ],
      "name": "getYesVotes",
      "outputs": [
        {
          "internalType": "uint256",
          "name": "",
          "type": "uint256"
        }
      ],
      "stateMutability": "view",
      "type": "function"
    },
    {
      "inputs": [],
      "name": "initialize",
      "outputs": [],
      "stateMutability": "nonpayable",
      "type": "function"
    },
    {
      "inputs": [],
      "name": "join",
      "outputs": [],
      "stateMutability": "nonpayable",
      "type": "function"
    },
    {
      "inputs": [
        {
          "internalType": "uint256",
          "name": "",
          "type": "uint256"
        }
      ],
      "name": "members",
      "outputs": [
        {
          "internalType": "address",
          "name": "",
          "type": "address"
        }
      ],
      "stateMutability": "view",
      "type": "function"
    },
    {
      "inputs": [],
      "name": "volume",
      "outputs": [
        {
          "internalType": "uint256",
          "name": "",
          "type": "uint256"
        }
      ],
      "stateMutability": "view",
      "type": "function"
    },
    {
      "inputs": [
        {
          "internalType": "address payable",
          "name": "_escrow",
          "type": "address"
        }
      ],
      "name": "voteNo",
      "outputs": [],
      "stateMutability": "nonpayable",
      "type": "function"
    },
    {
      "inputs": [
        {
          "internalType": "address payable",
          "name": "_escrow",
          "type": "address"
        }
      ],
      "name": "voteYes",
      "outputs": [],
      "stateMutability": "nonpayable",
      "type": "function"
    },
    {
      "inputs": [
        {
          "internalType": "address",
          "name": "",
          "type": "address"
        }
      ],
      "name": "wins",
      "outputs": [
        {
          "internalType": "uint256",
          "name": "",
          "type": "uint256"
        }
      ],
      "stateMutability": "view",
      "type": "function"
    },
    {
      "inputs": [],
      "name": "withdraw",
      "outputs": [],
      "stateMutability": "nonpayable",
      "type": "function"
    }
  ],
  "bytecode": "0x608060405234801561001057600080fd5b50613185806100206000396000f3fe6080604052600436106200012e5760003560e01c80636afcb6da11620000af5780639eab5253116200006d5780639eab5253146200046e578063b688a363146200049e578063c618a1e414620004b8578063e40297c914620004e8578063f6a8419e1462000516576200012e565b80636afcb6da14620003575780637133d9fb14620003875780638047a97a14620003cb5780638129fc1c146200040f5780639ab24eb01462000429576200012e565b80633899b08711620000fd5780633899b087146200022d5780633ccfd60b14620002715780635ab4f162146200028b5780635daf08ca14620002cf578063672657be1462000313576200012e565b8063012f52ee146200013357806327e235e314620001775780632dc1e44e14620001bb5780632e5cadad14620001ff575b600080fd5b3480156200014057600080fd5b506200015f600480360381019062000159919062001fd2565b62000536565b6040516200016e9190620022b2565b60405180910390f35b3480156200018457600080fd5b50620001a360048036038101906200019d919062001f0d565b62000576565b604051620001b2919062002497565b60405180910390f35b348015620001c857600080fd5b50620001e76004803603810190620001e1919062001f0d565b6200058e565b604051620001f6919062002497565b60405180910390f35b3480156200020c57600080fd5b506200022b600480360381019062000225919062001f39565b620005dd565b005b3480156200023a57600080fd5b5062000259600480360381019062000253919062001f0d565b62000ce8565b60405162000268919062002391565b60405180910390f35b3480156200027e57600080fd5b506200028962000dc4565b005b3480156200029857600080fd5b50620002b76004803603810190620002b1919062001f91565b62000ee5565b604051620002c69190620023ae565b60405180910390f35b348015620002dc57600080fd5b50620002fb6004803603810190620002f5919062001fd2565b62000f7c565b6040516200030a919062002278565b60405180910390f35b3480156200032057600080fd5b506200033f600480360381019062000339919062001f0d565b62000fbc565b6040516200034e919062002497565b60405180910390f35b3480156200036457600080fd5b506200036f62000fd4565b6040516200037e91906200236d565b60405180910390f35b3480156200039457600080fd5b50620003b36004803603810190620003ad919062001f0d565b62001064565b604051620003c2919062002497565b60405180910390f35b348015620003d857600080fd5b50620003f76004803603810190620003f1919062001f0d565b620010b3565b60405162000406919062002497565b60405180910390f35b3480156200041c57600080fd5b5062000427620010cb565b005b3480156200043657600080fd5b506200045560048036038101906200044f919062001f0d565b6200121b565b60405162000465929190620024b4565b60405180910390f35b3480156200047b57600080fd5b5062000486620012b3565b60405162000495919062002349565b60405180910390f35b348015620004ab57600080fd5b50620004b662001343565b005b348015620004c557600080fd5b50620004d0620013fc565b604051620004df919062002497565b60405180910390f35b348015620004f557600080fd5b506200051460048036038101906200050e919062001f39565b62001402565b005b6200053460048036038101906200052e919062001f39565b62001b0d565b005b600281815481106200054757600080fd5b906000526020600020016000915054906101000a900473ffffffffffffffffffffffffffffffffffffffff1681565b60046020528060005260406000206000915090505481565b6000600860008373ffffffffffffffffffffffffffffffffffffffff1673ffffffffffffffffffffffffffffffffffffffff168152602001908152602001600020600101805490509050919050565b80620005e93362000ce8565b6200062b576040517f08c379a0000000000000000000000000000000000000000000000000000000008152600401620006229062002431565b60405180910390fd5b6000600281111562000666577f4e487b7100000000000000000000000000000000000000000000000000000000600052602160045260246000fd5b600860008373ffffffffffffffffffffffffffffffffffffffff1673ffffffffffffffffffffffffffffffffffffffff16815260200190815260200160002060020160003373ffffffffffffffffffffffffffffffffffffffff1673ffffffffffffffffffffffffffffffffffffffff16815260200190815260200160002060009054906101000a900460ff1660028111156200072c577f4e487b7100000000000000000000000000000000000000000000000000000000600052602160045260246000fd5b146200076f576040517f08c379a00000000000000000000000000000000000000000000000000000000081526004016200076690620023cb565b60405180910390fd5b3373ffffffffffffffffffffffffffffffffffffffff168173ffffffffffffffffffffffffffffffffffffffff1663c7c4ff466040518163ffffffff1660e01b815260040160206040518083038186803b158015620007cd57600080fd5b505afa158015620007e2573d6000803e3d6000fd5b505050506040513d601f19601f8201168201806040525081019062000808919062001f65565b73ffffffffffffffffffffffffffffffffffffffff16141562000862576040517f08c379a000000000000000000000000000000000000000000000000000000000815260040162000859906200240f565b60405180910390fd5b3373ffffffffffffffffffffffffffffffffffffffff168173ffffffffffffffffffffffffffffffffffffffff166338af3eed6040518163ffffffff1660e01b815260040160206040518083038186803b158015620008c057600080fd5b505afa158015620008d5573d6000803e3d6000fd5b505050506040513d601f19601f82011682018060405250810190620008fb919062001f65565b73ffffffffffffffffffffffffffffffffffffffff16141562000955576040517f08c379a00000000000000000000000000000000000000000000000000000000081526004016200094c9062002453565b60405180910390fd5b6002600860008473ffffffffffffffffffffffffffffffffffffffff1673ffffffffffffffffffffffffffffffffffffffff16815260200190815260200160002060020160003373ffffffffffffffffffffffffffffffffffffffff1673ffffffffffffffffffffffffffffffffffffffff16815260200190815260200160002060006101000a81548160ff0219169083600281111562000a1f577f4e487b7100000000000000000000000000000000000000000000000000000000600052602160045260246000fd5b0217905550600860008373ffffffffffffffffffffffffffffffffffffffff1673ffffffffffffffffffffffffffffffffffffffff168152602001908152602001600020600101339080600181540180825580915050600190039060005260206000200160009091909190916101000a81548173ffffffffffffffffffffffffffffffffffffffff021916908373ffffffffffffffffffffffffffffffffffffffff1602179055506001600560003373ffffffffffffffffffffffffffffffffffffffff1673ffffffffffffffffffffffffffffffffffffffff168152602001908152602001600020600082825462000b19919062002564565b925050819055507f74aee70ff0c1f965f958c04aaf3ae32d5b64ef243749268cc467dbbe218d49de3383600260405162000b56939291906200230c565b60405180910390a16003600860008473ffffffffffffffffffffffffffffffffffffffff1673ffffffffffffffffffffffffffffffffffffffff16815260200190815260200160002060010180549050141562000ce4578173ffffffffffffffffffffffffffffffffffffffff1663a3fdfee36040518163ffffffff1660e01b8152600401600060405180830381600087803b15801562000bf657600080fd5b505af115801562000c0b573d6000803e3d6000fd5b5050505062000ce382600860008573ffffffffffffffffffffffffffffffffffffffff1673ffffffffffffffffffffffffffffffffffffffff16815260200190815260200160002060010180548060200260200160405190810160405280929190818152602001828054801562000cd857602002820191906000526020600020905b8160009054906101000a900473ffffffffffffffffffffffffffffffffffffffff1673ffffffffffffffffffffffffffffffffffffffff168152602001906001019080831162000c8d575b505050505062001cc5565b5b5050565b600080600090505b60018054905081101562000db9578273ffffffffffffffffffffffffffffffffffffffff166001828154811062000d50577f4e487b7100000000000000000000000000000000000000000000000000000000600052603260045260246000fd5b9060005260206000200160009054906101000a900473ffffffffffffffffffffffffffffffffffffffff1673ffffffffffffffffffffffffffffffffffffffff16141562000da357600191505062000dbf565b808062000db0906200271d565b91505062000cf0565b50600090505b919050565b6000600460003373ffffffffffffffffffffffffffffffffffffffff1673ffffffffffffffffffffffffffffffffffffffff168152602001908152602001600020541162000e1157600080fd5b6000600460003373ffffffffffffffffffffffffffffffffffffffff1673ffffffffffffffffffffffffffffffffffffffff1681526020019081526020016000205490506000600460003373ffffffffffffffffffffffffffffffffffffffff1673ffffffffffffffffffffffffffffffffffffffff168152602001908152602001600020819055503373ffffffffffffffffffffffffffffffffffffffff166108fc829081150290604051600060405180830381858888f1935050505015801562000ee1573d6000803e3d6000fd5b5050565b6000600860008473ffffffffffffffffffffffffffffffffffffffff1673ffffffffffffffffffffffffffffffffffffffff16815260200190815260200160002060020160008373ffffffffffffffffffffffffffffffffffffffff1673ffffffffffffffffffffffffffffffffffffffff16815260200190815260200160002060009054906101000a900460ff16905092915050565b6001818154811062000f8d57600080fd5b906000526020600020016000915054906101000a900473ffffffffffffffffffffffffffffffffffffffff1681565b60056020528060005260406000206000915090505481565b606060028054806020026020016040519081016040528092919081815260200182805480156200105a57602002820191906000526020600020905b8160009054906101000a900473ffffffffffffffffffffffffffffffffffffffff1673ffffffffffffffffffffffffffffffffffffffff16815260200190600101908083116200100f575b5050505050905090565b6000600860008373ffffffffffffffffffffffffffffffffffffffff1673ffffffffffffffffffffffffffffffffffffffff168152602001908152602001600020600001805490509050919050565b60066020528060005260406000206000915090505481565b600060019054906101000a900460ff16620010f55760008054906101000a900460ff161562001100565b620010ff62001e6d565b5b62001142576040517f08c379a00000000000000000000000000000000000000000000000000000000081526004016200113990620023ed565b60405180910390fd5b60008060019054906101000a900460ff16159050801562001193576001600060016101000a81548160ff02191690831515021790555060016000806101000a81548160ff0219169083151502179055505b6001339080600181540180825580915050600190039060005260206000200160009091909190916101000a81548173ffffffffffffffffffffffffffffffffffffffff021916908373ffffffffffffffffffffffffffffffffffffffff1602179055508015620012185760008060016101000a81548160ff0219169083151502179055505b50565b600080600860008473ffffffffffffffffffffffffffffffffffffffff1673ffffffffffffffffffffffffffffffffffffffff16815260200190815260200160002060000180549050600860008573ffffffffffffffffffffffffffffffffffffffff1673ffffffffffffffffffffffffffffffffffffffff1681526020019081526020016000206001018054905091509150915091565b606060018054806020026020016040519081016040528092919081815260200182805480156200133957602002820191906000526020600020905b8160009054906101000a900473ffffffffffffffffffffffffffffffffffffffff1673ffffffffffffffffffffffffffffffffffffffff1681526020019060010190808311620012ee575b5050505050905090565b60001515620013523362000ce8565b15151462001397576040517f08c379a00000000000000000000000000000000000000000000000000000000081526004016200138e9062002475565b60405180910390fd5b6001339080600181540180825580915050600190039060005260206000200160009091909190916101000a81548173ffffffffffffffffffffffffffffffffffffffff021916908373ffffffffffffffffffffffffffffffffffffffff160217905550565b60075481565b806200140e3362000ce8565b62001450576040517f08c379a0000000000000000000000000000000000000000000000000000000008152600401620014479062002431565b60405180910390fd5b600060028111156200148b577f4e487b7100000000000000000000000000000000000000000000000000000000600052602160045260246000fd5b600860008373ffffffffffffffffffffffffffffffffffffffff1673ffffffffffffffffffffffffffffffffffffffff16815260200190815260200160002060020160003373ffffffffffffffffffffffffffffffffffffffff1673ffffffffffffffffffffffffffffffffffffffff16815260200190815260200160002060009054906101000a900460ff16600281111562001551577f4e487b7100000000000000000000000000000000000000000000000000000000600052602160045260246000fd5b1462001594576040517f08c379a00000000000000000000000000000000000000000000000000000000081526004016200158b90620023cb565b60405180910390fd5b3373ffffffffffffffffffffffffffffffffffffffff168173ffffffffffffffffffffffffffffffffffffffff1663c7c4ff466040518163ffffffff1660e01b815260040160206040518083038186803b158015620015f257600080fd5b505afa15801562001607573d6000803e3d6000fd5b505050506040513d601f19601f820116820180604052508101906200162d919062001f65565b73ffffffffffffffffffffffffffffffffffffffff16141562001687576040517f08c379a00000000000000000000000000000000000000000000000000000000081526004016200167e906200240f565b60405180910390fd5b3373ffffffffffffffffffffffffffffffffffffffff168173ffffffffffffffffffffffffffffffffffffffff166338af3eed6040518163ffffffff1660e01b815260040160206040518083038186803b158015620016e557600080fd5b505afa158015620016fa573d6000803e3d6000fd5b505050506040513d601f19601f8201168201806040525081019062001720919062001f65565b73ffffffffffffffffffffffffffffffffffffffff1614156200177a576040517f08c379a0000000000000000000000000000000000000000000000000000000008152600401620017719062002453565b60405180910390fd5b6001600860008473ffffffffffffffffffffffffffffffffffffffff1673ffffffffffffffffffffffffffffffffffffffff16815260200190815260200160002060020160003373ffffffffffffffffffffffffffffffffffffffff1673ffffffffffffffffffffffffffffffffffffffff16815260200190815260200160002060006101000a81548160ff0219169083600281111562001844577f4e487b7100000000000000000000000000000000000000000000000000000000600052602160045260246000fd5b0217905550600860008373ffffffffffffffffffffffffffffffffffffffff1673ffffffffffffffffffffffffffffffffffffffff168152602001908152602001600020600001339080600181540180825580915050600190039060005260206000200160009091909190916101000a81548173ffffffffffffffffffffffffffffffffffffffff021916908373ffffffffffffffffffffffffffffffffffffffff1602179055506001600560003373ffffffffffffffffffffffffffffffffffffffff1673ffffffffffffffffffffffffffffffffffffffff16815260200190815260200160002060008282546200193e919062002564565b925050819055507f74aee70ff0c1f965f958c04aaf3ae32d5b64ef243749268cc467dbbe218d49de338360016040516200197b939291906200230c565b60405180910390a16003600860008473ffffffffffffffffffffffffffffffffffffffff1673ffffffffffffffffffffffffffffffffffffffff16815260200190815260200160002060000180549050141562001b09578173ffffffffffffffffffffffffffffffffffffffff166312424e3f6040518163ffffffff1660e01b8152600401600060405180830381600087803b15801562001a1b57600080fd5b505af115801562001a30573d6000803e3d6000fd5b5050505062001b0882600860008573ffffffffffffffffffffffffffffffffffffffff1673ffffffffffffffffffffffffffffffffffffffff16815260200190815260200160002060000180548060200260200160405190810160405280929190818152602001828054801562001afd57602002820191906000526020600020905b8160009054906101000a900473ffffffffffffffffffffffffffffffffffffffff1673ffffffffffffffffffffffffffffffffffffffff168152602001906001019080831162001ab2575b505050505062001cc5565b5b5050565b600033308360405162001b209062001ea3565b62001b2e93929190620022cf565b604051809103906000f08015801562001b4b573d6000803e3d6000fd5b50905060008190506002819080600181540180825580915050600190039060005260206000200160009091909190916101000a81548173ffffffffffffffffffffffffffffffffffffffff021916908373ffffffffffffffffffffffffffffffffffffffff1602179055508073ffffffffffffffffffffffffffffffffffffffff166108fc6009600a3462001be19190620025c1565b62001bed9190620025f9565b9081150290604051600060405180830381858888f1935050505015801562001c19573d6000803e3d6000fd5b50600a3462001c299190620025c1565b600360008373ffffffffffffffffffffffffffffffffffffffff1673ffffffffffffffffffffffffffffffffffffffff16815260200190815260200160002081905550346007600082825462001c80919062002564565b925050819055507fdc172423e65e4eb718110c42ad3b66ac4b0a613e4d07bfb55f2477f2d1bf34eb8160405162001cb8919062002295565b60405180910390a1505050565b60005b815181101562001e68576006600360008573ffffffffffffffffffffffffffffffffffffffff1673ffffffffffffffffffffffffffffffffffffffff1681526020019081526020016000205462001d209190620025c1565b6004600084848151811062001d5e577f4e487b7100000000000000000000000000000000000000000000000000000000600052603260045260246000fd5b602002602001015173ffffffffffffffffffffffffffffffffffffffff1673ffffffffffffffffffffffffffffffffffffffff168152602001908152602001600020600082825462001db1919062002564565b9250508190555060016006600084848151811062001df8577f4e487b7100000000000000000000000000000000000000000000000000000000600052603260045260246000fd5b602002602001015173ffffffffffffffffffffffffffffffffffffffff1673ffffffffffffffffffffffffffffffffffffffff168152602001908152602001600020600082825462001e4b919062002564565b92505081905550808062001e5f906200271d565b91505062001cc8565b505050565b600062001e7a3062001e80565b15905090565b6000808273ffffffffffffffffffffffffffffffffffffffff163b119050919050565b6107d6806200297a83390190565b60008135905062001ec2816200292b565b92915050565b60008135905062001ed98162002945565b92915050565b60008151905062001ef08162002945565b92915050565b60008135905062001f07816200295f565b92915050565b60006020828403121562001f2057600080fd5b600062001f308482850162001eb1565b91505092915050565b60006020828403121562001f4c57600080fd5b600062001f5c8482850162001ec8565b91505092915050565b60006020828403121562001f7857600080fd5b600062001f888482850162001edf565b91505092915050565b6000806040838503121562001fa557600080fd5b600062001fb58582860162001eb1565b925050602062001fc88582860162001eb1565b9150509250929050565b60006020828403121562001fe557600080fd5b600062001ff58482850162001ef6565b91505092915050565b60006200200c838362002043565b60208301905092915050565b600062002026838362002065565b60208301905092915050565b6200203d81620026cd565b82525050565b6200204e816200266e565b82525050565b6200205f816200266e565b82525050565b62002070816200265a565b82525050565b62002081816200265a565b82525050565b6000620020948262002501565b620020a0818562002531565b9350620020ad83620024e1565b8060005b83811015620020e4578151620020c8888262002018565b9750620020d58362002517565b925050600181019050620020b1565b5085935050505092915050565b6000620020fe826200250c565b6200210a818562002542565b93506200211783620024f1565b8060005b838110156200214e57815162002132888262001ffe565b97506200213f8362002524565b9250506001810190506200211b565b5085935050505092915050565b620021668162002682565b82525050565b6200217781620026e1565b82525050565b60006200218c601f8362002553565b91506200219982620027f8565b602082019050919050565b6000620021b3602e8362002553565b9150620021c08262002821565b604082019050919050565b6000620021da601e8362002553565b9150620021e78262002870565b602082019050919050565b60006200220160168362002553565b91506200220e8262002899565b602082019050919050565b60006200222860208362002553565b91506200223582620028c2565b602082019050919050565b60006200224f60188362002553565b91506200225c82620028eb565b602082019050919050565b6200227281620026c3565b82525050565b60006020820190506200228f600083018462002076565b92915050565b6000602082019050620022ac600083018462002032565b92915050565b6000602082019050620022c9600083018462002054565b92915050565b6000606082019050620022e6600083018662002054565b620022f5602083018562002076565b62002304604083018462002054565b949350505050565b600060608201905062002323600083018662002076565b62002332602083018562002032565b6200234160408301846200216c565b949350505050565b6000602082019050818103600083015262002365818462002087565b905092915050565b60006020820190508181036000830152620023898184620020f1565b905092915050565b6000602082019050620023a860008301846200215b565b92915050565b6000602082019050620023c560008301846200216c565b92915050565b60006020820190508181036000830152620023e6816200217d565b9050919050565b600060208201905081810360008301526200240881620021a4565b9050919050565b600060208201905081810360008301526200242a81620021cb565b9050919050565b600060208201905081810360008301526200244c81620021f2565b9050919050565b600060208201905081810360008301526200246e8162002219565b9050919050565b60006020820190508181036000830152620024908162002240565b9050919050565b6000602082019050620024ae600083018462002267565b92915050565b6000604082019050620024cb600083018562002267565b620024da602083018462002267565b9392505050565b6000819050602082019050919050565b6000819050602082019050919050565b600081519050919050565b600081519050919050565b6000602082019050919050565b6000602082019050919050565b600082825260208201905092915050565b600082825260208201905092915050565b600082825260208201905092915050565b60006200257182620026c3565b91506200257e83620026c3565b9250827fffffffffffffffffffffffffffffffffffffffffffffffffffffffffffffffff03821115620025b657620025b56200276b565b5b828201905092915050565b6000620025ce82620026c3565b9150620025db83620026c3565b925082620025ee57620025ed6200279a565b5b828204905092915050565b60006200260682620026c3565b91506200261383620026c3565b9250817fffffffffffffffffffffffffffffffffffffffffffffffffffffffffffffffff04831182151516156200264f576200264e6200276b565b5b828202905092915050565b60006200266782620026a3565b9050919050565b60006200267b82620026a3565b9050919050565b60008115159050919050565b60008190506200269e8262002914565b919050565b600073ffffffffffffffffffffffffffffffffffffffff82169050919050565b6000819050919050565b6000620026da82620026f5565b9050919050565b6000620026ee826200268e565b9050919050565b6000620027028262002709565b9050919050565b60006200271682620026a3565b9050919050565b60006200272a82620026c3565b91507fffffffffffffffffffffffffffffffffffffffffffffffffffffffffffffffff82141562002760576200275f6200276b565b5b600182019050919050565b7f4e487b7100000000000000000000000000000000000000000000000000000000600052601160045260246000fd5b7f4e487b7100000000000000000000000000000000000000000000000000000000600052601260045260246000fd5b7f4e487b7100000000000000000000000000000000000000000000000000000000600052602160045260246000fd5b7f5468697320616464726573732068617320616c726561647920766f7465642100600082015250565b7f496e697469616c697a61626c653a20636f6e747261637420697320616c72656160008201527f647920696e697469616c697a6564000000000000000000000000000000000000602082015250565b7f4465706f7369746f72206e6f7420616c6c6f77656420746f20766f7465210000600082015250565b7f4f6e6c79206d656d626572732063616e20766f74652100000000000000000000600082015250565b7f42656e6566696369617279206e6f7420616c6c6f77656420746f20766f746521600082015250565b7f4164647265737320616c72656164792062656c6f6e6773210000000000000000600082015250565b60038110620029285762002927620027c9565b5b50565b62002936816200265a565b81146200294257600080fd5b50565b62002950816200266e565b81146200295c57600080fd5b50565b6200296a81620026c3565b81146200297657600080fd5b5056fe60806040526040516107d63803806107d683398181016040528101906100259190610119565b826000806101000a81548173ffffffffffffffffffffffffffffffffffffffff021916908373ffffffffffffffffffffffffffffffffffffffff16021790555080600160006101000a81548173ffffffffffffffffffffffffffffffffffffffff021916908373ffffffffffffffffffffffffffffffffffffffff16021790555081600260006101000a81548173ffffffffffffffffffffffffffffffffffffffff021916908373ffffffffffffffffffffffffffffffffffffffff1602179055505050506101da565b6000815190506100fe816101ac565b92915050565b600081519050610113816101c3565b92915050565b60008060006060848603121561012e57600080fd5b600061013c86828701610104565b935050602061014d868287016100ef565b925050604061015e86828701610104565b9150509250925092565b60006101738261018c565b9050919050565b60006101858261018c565b9050919050565b600073ffffffffffffffffffffffffffffffffffffffff82169050919050565b6101b581610168565b81146101c057600080fd5b50565b6101cc8161017a565b81146101d757600080fd5b50565b6105ed806101e96000396000f3fe6080604052600436106100595760003560e01c806312424e3f14610065578063200d2ed21461007c57806338af3eed146100a7578063a3fdfee3146100d2578063c7c4ff46146100e9578063fe25e00a1461011457610060565b3661006057005b600080fd5b34801561007157600080fd5b5061007a61013f565b005b34801561008857600080fd5b5061009161028c565b60405161009e91906104cb565b60405180910390f35b3480156100b357600080fd5b506100bc61029f565b6040516100c991906104b0565b60405180910390f35b3480156100de57600080fd5b506100e76102c5565b005b3480156100f557600080fd5b506100fe61040f565b60405161010b91906104b0565b60405180910390f35b34801561012057600080fd5b50610129610433565b6040516101369190610495565b60405180910390f35b600260009054906101000a900473ffffffffffffffffffffffffffffffffffffffff1673ffffffffffffffffffffffffffffffffffffffff163373ffffffffffffffffffffffffffffffffffffffff161461019957600080fd5b6001600260146101000a81548160ff021916908360028111156101e5577f4e487b7100000000000000000000000000000000000000000000000000000000600052602160045260246000fd5b02179055507f3ad93af63cb7967b23e4fb500b7d7d28b07516325dcf341f88bebf959d82c1cb4760405161021991906104e6565b60405180910390a1600160009054906101000a900473ffffffffffffffffffffffffffffffffffffffff1673ffffffffffffffffffffffffffffffffffffffff166108fc479081150290604051600060405180830381858888f19350505050158015610289573d6000803e3d6000fd5b50565b600260149054906101000a900460ff1681565b600160009054906101000a900473ffffffffffffffffffffffffffffffffffffffff1681565b600260009054906101000a900473ffffffffffffffffffffffffffffffffffffffff1673ffffffffffffffffffffffffffffffffffffffff163373ffffffffffffffffffffffffffffffffffffffff161461031f57600080fd5b60028060146101000a81548160ff0219169083600281111561036a577f4e487b7100000000000000000000000000000000000000000000000000000000600052602160045260246000fd5b02179055507f7e46dab6301cb35d8155d120339f166b39f0acf27f2a9a284977d4902c30aef54760405161039e91906104e6565b60405180910390a160008054906101000a900473ffffffffffffffffffffffffffffffffffffffff1673ffffffffffffffffffffffffffffffffffffffff166108fc479081150290604051600060405180830381858888f1935050505015801561040c573d6000803e3d6000fd5b50565b60008054906101000a900473ffffffffffffffffffffffffffffffffffffffff1681565b600260009054906101000a900473ffffffffffffffffffffffffffffffffffffffff1681565b61046281610513565b82525050565b61047181610501565b82525050565b61048081610562565b82525050565b61048f81610558565b82525050565b60006020820190506104aa6000830184610468565b92915050565b60006020820190506104c56000830184610459565b92915050565b60006020820190506104e06000830184610477565b92915050565b60006020820190506104fb6000830184610486565b92915050565b600061050c82610538565b9050919050565b600061051e82610538565b9050919050565b6000819050610533826105a3565b919050565b600073ffffffffffffffffffffffffffffffffffffffff82169050919050565b6000819050919050565b600061056d82610525565b9050919050565b7f4e487b7100000000000000000000000000000000000000000000000000000000600052602160045260246000fd5b600381106105b4576105b3610574565b5b5056fea2646970667358221220741330f576e54ef1d40d897802a6e8a073f6ac5a3843b9c1d31963d66ef7454564736f6c63430008040033a2646970667358221220daa47cd3e7f2d45ef526724e244267a5fc22a79cebd688dd718b2b367c32b7a164736f6c63430008040033",
  "linkReferences": {},
  "deployedLinkReferences": {}
}