{
  "_format": "hh-sol-artifact-1",
  "contractName": "EscrowDAO",
  "sourceName": "contracts/EscrowDAO.sol",
  "abi": [
    {
      "inputs": [],
      "stateMutability": "nonpayable",
      "type": "constructor"
    },
    {
      "anonymous": false,
      "inputs": [
        {
          "indexed": false,
          "internalType": "address",
          "name": "",
          "type": "address"
        }
      ],
      "name": "EscrowCreated",
      "type": "event"
    },
    {
      "anonymous": false,
      "inputs": [
        {
          "indexed": false,
          "internalType": "address",
          "name": "member",
          "type": "address"
        },
        {
          "indexed": false,
          "internalType": "address",
          "name": "escrow",
          "type": "address"
        },
        {
          "indexed": false,
          "internalType": "enum EscrowDAO.Vote",
          "name": "vote",
          "type": "uint8"
        }
      ],
      "name": "MemberVoted",
      "type": "event"
    },
    {
      "inputs": [
        {
          "internalType": "address",
          "name": "",
          "type": "address"
        }
      ],
      "name": "attempts",
      "outputs": [
        {
          "internalType": "uint256",
          "name": "",
          "type": "uint256"
        }
      ],
      "stateMutability": "view",
      "type": "function"
    },
    {
      "inputs": [
        {
          "internalType": "address",
          "name": "",
          "type": "address"
        }
      ],
      "name": "balances",
      "outputs": [
        {
          "internalType": "uint256",
          "name": "",
          "type": "uint256"
        }
      ],
      "stateMutability": "view",
      "type": "function"
    },
    {
      "inputs": [
        {
          "internalType": "address",
          "name": "_address",
          "type": "address"
        }
      ],
      "name": "belongs",
      "outputs": [
        {
          "internalType": "bool",
          "name": "",
          "type": "bool"
        }
      ],
      "stateMutability": "view",
      "type": "function"
    },
    {
      "inputs": [
        {
          "internalType": "address payable",
          "name": "_beneficiary",
          "type": "address"
        }
      ],
      "name": "createEscrow",
      "outputs": [],
      "stateMutability": "payable",
      "type": "function"
    },
    {
      "inputs": [
        {
          "internalType": "uint256",
          "name": "",
          "type": "uint256"
        }
      ],
      "name": "escrows",
      "outputs": [
        {
          "internalType": "address payable",
          "name": "",
          "type": "address"
        }
      ],
      "stateMutability": "view",
      "type": "function"
    },
    {
      "inputs": [],
      "name": "getEscrows",
      "outputs": [
        {
          "internalType": "address payable[]",
          "name": "",
          "type": "address[]"
        }
      ],
      "stateMutability": "view",
      "type": "function"
    },
    {
      "inputs": [],
      "name": "getMembers",
      "outputs": [
        {
          "internalType": "address[]",
          "name": "",
          "type": "address[]"
        }
      ],
      "stateMutability": "view",
      "type": "function"
    },
    {
      "inputs": [
        {
          "internalType": "address",
          "name": "_escrow",
          "type": "address"
        }
      ],
      "name": "getNoVotes",
      "outputs": [
        {
          "internalType": "uint256",
          "name": "",
          "type": "uint256"
        }
      ],
      "stateMutability": "view",
      "type": "function"
    },
    {
      "inputs": [
        {
          "internalType": "address",
          "name": "_escrow",
          "type": "address"
        },
        {
          "internalType": "address",
          "name": "_member",
          "type": "address"
        }
      ],
      "name": "getVote",
      "outputs": [
        {
          "internalType": "enum EscrowDAO.Vote",
          "name": "",
          "type": "uint8"
        }
      ],
      "stateMutability": "view",
      "type": "function"
    },
    {
      "inputs": [
        {
          "internalType": "address",
          "name": "_escrow",
          "type": "address"
        }
      ],
      "name": "getVotes",
      "outputs": [
        {
          "internalType": "uint256",
          "name": "_yes",
          "type": "uint256"
        },
        {
          "internalType": "uint256",
          "name": "_no",
          "type": "uint256"
        }
      ],
      "stateMutability": "view",
      "type": "function"
    },
    {
      "inputs": [
        {
          "internalType": "address",
          "name": "_escrow",
          "type": "address"
        }
      ],
      "name": "getYesVotes",
      "outputs": [
        {
          "internalType": "uint256",
          "name": "",
          "type": "uint256"
        }
      ],
      "stateMutability": "view",
      "type": "function"
    },
    {
      "inputs": [],
      "name": "join",
      "outputs": [],
      "stateMutability": "nonpayable",
      "type": "function"
    },
    {
      "inputs": [
        {
          "internalType": "uint256",
          "name": "",
          "type": "uint256"
        }
      ],
      "name": "members",
      "outputs": [
        {
          "internalType": "address",
          "name": "",
          "type": "address"
        }
      ],
      "stateMutability": "view",
      "type": "function"
    },
    {
      "inputs": [],
      "name": "volume",
      "outputs": [
        {
          "internalType": "uint256",
          "name": "",
          "type": "uint256"
        }
      ],
      "stateMutability": "view",
      "type": "function"
    },
    {
      "inputs": [
        {
          "internalType": "address payable",
          "name": "_escrow",
          "type": "address"
        }
      ],
      "name": "voteNo",
      "outputs": [],
      "stateMutability": "nonpayable",
      "type": "function"
    },
    {
      "inputs": [
        {
          "internalType": "address payable",
          "name": "_escrow",
          "type": "address"
        }
      ],
      "name": "voteYes",
      "outputs": [],
      "stateMutability": "nonpayable",
      "type": "function"
    },
    {
      "inputs": [
        {
          "internalType": "address",
          "name": "",
          "type": "address"
        }
      ],
      "name": "wins",
      "outputs": [
        {
          "internalType": "uint256",
          "name": "",
          "type": "uint256"
        }
      ],
      "stateMutability": "view",
      "type": "function"
    },
    {
      "inputs": [],
      "name": "withdraw",
      "outputs": [],
      "stateMutability": "nonpayable",
      "type": "function"
    }
  ],
  "bytecode": "0x608060405234801561001057600080fd5b506000339080600181540180825580915050600190039060005260206000200160009091909190916101000a81548173ffffffffffffffffffffffffffffffffffffffff021916908373ffffffffffffffffffffffffffffffffffffffff160217905550612f41806100836000396000f3fe608060405260043610620001225760003560e01c80636afcb6da11620000a35780639eab5253116200006d5780639eab52531462000448578063b688a3631462000478578063c618a1e41462000492578063e40297c914620004c2578063f6a8419e14620004f05762000122565b80636afcb6da146200034b5780637133d9fb146200037b5780638047a97a14620003bf5780639ab24eb014620004035762000122565b80633899b08711620000f15780633899b08714620002215780633ccfd60b14620002655780635ab4f162146200027f5780635daf08ca14620002c3578063672657be14620003075762000122565b8063012f52ee146200012757806327e235e3146200016b5780632dc1e44e14620001af5780632e5cadad14620001f3575b600080fd5b3480156200013457600080fd5b506200015360048036038101906200014d919062001e26565b62000510565b604051620001629190620020df565b60405180910390f35b3480156200017857600080fd5b5062000197600480360381019062000191919062001d61565b62000550565b604051620001a69190620022a2565b60405180910390f35b348015620001bc57600080fd5b50620001db6004803603810190620001d5919062001d61565b62000568565b604051620001ea9190620022a2565b60405180910390f35b3480156200020057600080fd5b506200021f600480360381019062000219919062001d8d565b620005b7565b005b3480156200022e57600080fd5b506200024d600480360381019062000247919062001d61565b62000cc2565b6040516200025c9190620021be565b60405180910390f35b3480156200027257600080fd5b506200027d62000d9e565b005b3480156200028c57600080fd5b50620002ab6004803603810190620002a5919062001de5565b62000ebf565b604051620002ba9190620021db565b60405180910390f35b348015620002d057600080fd5b50620002ef6004803603810190620002e9919062001e26565b62000f56565b604051620002fe9190620020a5565b60405180910390f35b3480156200031457600080fd5b506200033360048036038101906200032d919062001d61565b62000f96565b604051620003429190620022a2565b60405180910390f35b3480156200035857600080fd5b506200036362000fae565b6040516200037291906200219a565b60405180910390f35b3480156200038857600080fd5b50620003a76004803603810190620003a1919062001d61565b6200103e565b604051620003b69190620022a2565b60405180910390f35b348015620003cc57600080fd5b50620003eb6004803603810190620003e5919062001d61565b6200108d565b604051620003fa9190620022a2565b60405180910390f35b3480156200041057600080fd5b506200042f600480360381019062000429919062001d61565b620010a5565b6040516200043f929190620022bf565b60405180910390f35b3480156200045557600080fd5b50620004606200113d565b6040516200046f919062002176565b60405180910390f35b3480156200048557600080fd5b5062000490620011cd565b005b3480156200049f57600080fd5b50620004aa62001286565b604051620004b99190620022a2565b60405180910390f35b348015620004cf57600080fd5b50620004ee6004803603810190620004e8919062001d8d565b6200128c565b005b6200050e600480360381019062000508919062001d8d565b62001997565b005b600181815481106200052157600080fd5b906000526020600020016000915054906101000a900473ffffffffffffffffffffffffffffffffffffffff1681565b60036020528060005260406000206000915090505481565b6000600760008373ffffffffffffffffffffffffffffffffffffffff1673ffffffffffffffffffffffffffffffffffffffff168152602001908152602001600020600101805490509050919050565b80620005c33362000cc2565b62000605576040517f08c379a0000000000000000000000000000000000000000000000000000000008152600401620005fc906200223c565b60405180910390fd5b6000600281111562000640577f4e487b7100000000000000000000000000000000000000000000000000000000600052602160045260246000fd5b600760008373ffffffffffffffffffffffffffffffffffffffff1673ffffffffffffffffffffffffffffffffffffffff16815260200190815260200160002060020160003373ffffffffffffffffffffffffffffffffffffffff1673ffffffffffffffffffffffffffffffffffffffff16815260200190815260200160002060009054906101000a900460ff16600281111562000706577f4e487b7100000000000000000000000000000000000000000000000000000000600052602160045260246000fd5b1462000749576040517f08c379a00000000000000000000000000000000000000000000000000000000081526004016200074090620021f8565b60405180910390fd5b3373ffffffffffffffffffffffffffffffffffffffff168173ffffffffffffffffffffffffffffffffffffffff1663c7c4ff466040518163ffffffff1660e01b815260040160206040518083038186803b158015620007a757600080fd5b505afa158015620007bc573d6000803e3d6000fd5b505050506040513d601f19601f82011682018060405250810190620007e2919062001db9565b73ffffffffffffffffffffffffffffffffffffffff1614156200083c576040517f08c379a000000000000000000000000000000000000000000000000000000000815260040162000833906200221a565b60405180910390fd5b3373ffffffffffffffffffffffffffffffffffffffff168173ffffffffffffffffffffffffffffffffffffffff166338af3eed6040518163ffffffff1660e01b815260040160206040518083038186803b1580156200089a57600080fd5b505afa158015620008af573d6000803e3d6000fd5b505050506040513d601f19601f82011682018060405250810190620008d5919062001db9565b73ffffffffffffffffffffffffffffffffffffffff1614156200092f576040517f08c379a000000000000000000000000000000000000000000000000000000000815260040162000926906200225e565b60405180910390fd5b6002600760008473ffffffffffffffffffffffffffffffffffffffff1673ffffffffffffffffffffffffffffffffffffffff16815260200190815260200160002060020160003373ffffffffffffffffffffffffffffffffffffffff1673ffffffffffffffffffffffffffffffffffffffff16815260200190815260200160002060006101000a81548160ff02191690836002811115620009f9577f4e487b7100000000000000000000000000000000000000000000000000000000600052602160045260246000fd5b0217905550600760008373ffffffffffffffffffffffffffffffffffffffff1673ffffffffffffffffffffffffffffffffffffffff168152602001908152602001600020600101339080600181540180825580915050600190039060005260206000200160009091909190916101000a81548173ffffffffffffffffffffffffffffffffffffffff021916908373ffffffffffffffffffffffffffffffffffffffff1602179055506001600460003373ffffffffffffffffffffffffffffffffffffffff1673ffffffffffffffffffffffffffffffffffffffff168152602001908152602001600020600082825462000af391906200236f565b925050819055507f74aee70ff0c1f965f958c04aaf3ae32d5b64ef243749268cc467dbbe218d49de3383600260405162000b309392919062002139565b60405180910390a16003600760008473ffffffffffffffffffffffffffffffffffffffff1673ffffffffffffffffffffffffffffffffffffffff16815260200190815260200160002060010180549050141562000cbe578173ffffffffffffffffffffffffffffffffffffffff1663a3fdfee36040518163ffffffff1660e01b8152600401600060405180830381600087803b15801562000bd057600080fd5b505af115801562000be5573d6000803e3d6000fd5b5050505062000cbd82600760008573ffffffffffffffffffffffffffffffffffffffff1673ffffffffffffffffffffffffffffffffffffffff16815260200190815260200160002060010180548060200260200160405190810160405280929190818152602001828054801562000cb257602002820191906000526020600020905b8160009054906101000a900473ffffffffffffffffffffffffffffffffffffffff1673ffffffffffffffffffffffffffffffffffffffff168152602001906001019080831162000c67575b505050505062001b4f565b5b5050565b600080600090505b60008054905081101562000d93578273ffffffffffffffffffffffffffffffffffffffff166000828154811062000d2a577f4e487b7100000000000000000000000000000000000000000000000000000000600052603260045260246000fd5b9060005260206000200160009054906101000a900473ffffffffffffffffffffffffffffffffffffffff1673ffffffffffffffffffffffffffffffffffffffff16141562000d7d57600191505062000d99565b808062000d8a9062002528565b91505062000cca565b50600090505b919050565b6000600360003373ffffffffffffffffffffffffffffffffffffffff1673ffffffffffffffffffffffffffffffffffffffff168152602001908152602001600020541162000deb57600080fd5b6000600360003373ffffffffffffffffffffffffffffffffffffffff1673ffffffffffffffffffffffffffffffffffffffff1681526020019081526020016000205490506000600360003373ffffffffffffffffffffffffffffffffffffffff1673ffffffffffffffffffffffffffffffffffffffff168152602001908152602001600020819055503373ffffffffffffffffffffffffffffffffffffffff166108fc829081150290604051600060405180830381858888f1935050505015801562000ebb573d6000803e3d6000fd5b5050565b6000600760008473ffffffffffffffffffffffffffffffffffffffff1673ffffffffffffffffffffffffffffffffffffffff16815260200190815260200160002060020160008373ffffffffffffffffffffffffffffffffffffffff1673ffffffffffffffffffffffffffffffffffffffff16815260200190815260200160002060009054906101000a900460ff16905092915050565b6000818154811062000f6757600080fd5b906000526020600020016000915054906101000a900473ffffffffffffffffffffffffffffffffffffffff1681565b60046020528060005260406000206000915090505481565b606060018054806020026020016040519081016040528092919081815260200182805480156200103457602002820191906000526020600020905b8160009054906101000a900473ffffffffffffffffffffffffffffffffffffffff1673ffffffffffffffffffffffffffffffffffffffff168152602001906001019080831162000fe9575b5050505050905090565b6000600760008373ffffffffffffffffffffffffffffffffffffffff1673ffffffffffffffffffffffffffffffffffffffff168152602001908152602001600020600001805490509050919050565b60056020528060005260406000206000915090505481565b600080600760008473ffffffffffffffffffffffffffffffffffffffff1673ffffffffffffffffffffffffffffffffffffffff16815260200190815260200160002060000180549050600760008573ffffffffffffffffffffffffffffffffffffffff1673ffffffffffffffffffffffffffffffffffffffff1681526020019081526020016000206001018054905091509150915091565b60606000805480602002602001604051908101604052809291908181526020018280548015620011c357602002820191906000526020600020905b8160009054906101000a900473ffffffffffffffffffffffffffffffffffffffff1673ffffffffffffffffffffffffffffffffffffffff168152602001906001019080831162001178575b5050505050905090565b60001515620011dc3362000cc2565b15151462001221576040517f08c379a0000000000000000000000000000000000000000000000000000000008152600401620012189062002280565b60405180910390fd5b6000339080600181540180825580915050600190039060005260206000200160009091909190916101000a81548173ffffffffffffffffffffffffffffffffffffffff021916908373ffffffffffffffffffffffffffffffffffffffff160217905550565b60065481565b80620012983362000cc2565b620012da576040517f08c379a0000000000000000000000000000000000000000000000000000000008152600401620012d1906200223c565b60405180910390fd5b6000600281111562001315577f4e487b7100000000000000000000000000000000000000000000000000000000600052602160045260246000fd5b600760008373ffffffffffffffffffffffffffffffffffffffff1673ffffffffffffffffffffffffffffffffffffffff16815260200190815260200160002060020160003373ffffffffffffffffffffffffffffffffffffffff1673ffffffffffffffffffffffffffffffffffffffff16815260200190815260200160002060009054906101000a900460ff166002811115620013db577f4e487b7100000000000000000000000000000000000000000000000000000000600052602160045260246000fd5b146200141e576040517f08c379a00000000000000000000000000000000000000000000000000000000081526004016200141590620021f8565b60405180910390fd5b3373ffffffffffffffffffffffffffffffffffffffff168173ffffffffffffffffffffffffffffffffffffffff1663c7c4ff466040518163ffffffff1660e01b815260040160206040518083038186803b1580156200147c57600080fd5b505afa15801562001491573d6000803e3d6000fd5b505050506040513d601f19601f82011682018060405250810190620014b7919062001db9565b73ffffffffffffffffffffffffffffffffffffffff16141562001511576040517f08c379a000000000000000000000000000000000000000000000000000000000815260040162001508906200221a565b60405180910390fd5b3373ffffffffffffffffffffffffffffffffffffffff168173ffffffffffffffffffffffffffffffffffffffff166338af3eed6040518163ffffffff1660e01b815260040160206040518083038186803b1580156200156f57600080fd5b505afa15801562001584573d6000803e3d6000fd5b505050506040513d601f19601f82011682018060405250810190620015aa919062001db9565b73ffffffffffffffffffffffffffffffffffffffff16141562001604576040517f08c379a0000000000000000000000000000000000000000000000000000000008152600401620015fb906200225e565b60405180910390fd5b6001600760008473ffffffffffffffffffffffffffffffffffffffff1673ffffffffffffffffffffffffffffffffffffffff16815260200190815260200160002060020160003373ffffffffffffffffffffffffffffffffffffffff1673ffffffffffffffffffffffffffffffffffffffff16815260200190815260200160002060006101000a81548160ff02191690836002811115620016ce577f4e487b7100000000000000000000000000000000000000000000000000000000600052602160045260246000fd5b0217905550600760008373ffffffffffffffffffffffffffffffffffffffff1673ffffffffffffffffffffffffffffffffffffffff168152602001908152602001600020600001339080600181540180825580915050600190039060005260206000200160009091909190916101000a81548173ffffffffffffffffffffffffffffffffffffffff021916908373ffffffffffffffffffffffffffffffffffffffff1602179055506001600460003373ffffffffffffffffffffffffffffffffffffffff1673ffffffffffffffffffffffffffffffffffffffff1681526020019081526020016000206000828254620017c891906200236f565b925050819055507f74aee70ff0c1f965f958c04aaf3ae32d5b64ef243749268cc467dbbe218d49de33836001604051620018059392919062002139565b60405180910390a16003600760008473ffffffffffffffffffffffffffffffffffffffff1673ffffffffffffffffffffffffffffffffffffffff16815260200190815260200160002060000180549050141562001993578173ffffffffffffffffffffffffffffffffffffffff166312424e3f6040518163ffffffff1660e01b8152600401600060405180830381600087803b158015620018a557600080fd5b505af1158015620018ba573d6000803e3d6000fd5b505050506200199282600760008573ffffffffffffffffffffffffffffffffffffffff1673ffffffffffffffffffffffffffffffffffffffff1681526020019081526020016000206000018054806020026020016040519081016040528092919081815260200182805480156200198757602002820191906000526020600020905b8160009054906101000a900473ffffffffffffffffffffffffffffffffffffffff1673ffffffffffffffffffffffffffffffffffffffff16815260200190600101908083116200193c575b505050505062001b4f565b5b5050565b6000333083604051620019aa9062001cf7565b620019b893929190620020fc565b604051809103906000f080158015620019d5573d6000803e3d6000fd5b50905060008190506001819080600181540180825580915050600190039060005260206000200160009091909190916101000a81548173ffffffffffffffffffffffffffffffffffffffff021916908373ffffffffffffffffffffffffffffffffffffffff1602179055508073ffffffffffffffffffffffffffffffffffffffff166108fc6009600a3462001a6b9190620023cc565b62001a77919062002404565b9081150290604051600060405180830381858888f1935050505015801562001aa3573d6000803e3d6000fd5b50600a3462001ab39190620023cc565b600260008373ffffffffffffffffffffffffffffffffffffffff1673ffffffffffffffffffffffffffffffffffffffff16815260200190815260200160002081905550346006600082825462001b0a91906200236f565b925050819055507fdc172423e65e4eb718110c42ad3b66ac4b0a613e4d07bfb55f2477f2d1bf34eb8160405162001b429190620020c2565b60405180910390a1505050565b60005b815181101562001cf2576006600260008573ffffffffffffffffffffffffffffffffffffffff1673ffffffffffffffffffffffffffffffffffffffff1681526020019081526020016000205462001baa9190620023cc565b6003600084848151811062001be8577f4e487b7100000000000000000000000000000000000000000000000000000000600052603260045260246000fd5b602002602001015173ffffffffffffffffffffffffffffffffffffffff1673ffffffffffffffffffffffffffffffffffffffff168152602001908152602001600020600082825462001c3b91906200236f565b9250508190555060016005600084848151811062001c82577f4e487b7100000000000000000000000000000000000000000000000000000000600052603260045260246000fd5b602002602001015173ffffffffffffffffffffffffffffffffffffffff1673ffffffffffffffffffffffffffffffffffffffff168152602001908152602001600020600082825462001cd591906200236f565b92505081905550808062001ce99062002528565b91505062001b52565b505050565b6107d6806200273683390190565b60008135905062001d1681620026e7565b92915050565b60008135905062001d2d8162002701565b92915050565b60008151905062001d448162002701565b92915050565b60008135905062001d5b816200271b565b92915050565b60006020828403121562001d7457600080fd5b600062001d848482850162001d05565b91505092915050565b60006020828403121562001da057600080fd5b600062001db08482850162001d1c565b91505092915050565b60006020828403121562001dcc57600080fd5b600062001ddc8482850162001d33565b91505092915050565b6000806040838503121562001df957600080fd5b600062001e098582860162001d05565b925050602062001e1c8582860162001d05565b9150509250929050565b60006020828403121562001e3957600080fd5b600062001e498482850162001d4a565b91505092915050565b600062001e60838362001e97565b60208301905092915050565b600062001e7a838362001eb9565b60208301905092915050565b62001e9181620024d8565b82525050565b62001ea28162002479565b82525050565b62001eb38162002479565b82525050565b62001ec48162002465565b82525050565b62001ed58162002465565b82525050565b600062001ee8826200230c565b62001ef481856200233c565b935062001f0183620022ec565b8060005b8381101562001f3857815162001f1c888262001e6c565b975062001f298362002322565b92505060018101905062001f05565b5085935050505092915050565b600062001f528262002317565b62001f5e81856200234d565b935062001f6b83620022fc565b8060005b8381101562001fa257815162001f86888262001e52565b975062001f93836200232f565b92505060018101905062001f6f565b5085935050505092915050565b62001fba816200248d565b82525050565b62001fcb81620024ec565b82525050565b600062001fe0601f836200235e565b915062001fed8262002603565b602082019050919050565b600062002007601e836200235e565b915062002014826200262c565b602082019050919050565b60006200202e6016836200235e565b91506200203b8262002655565b602082019050919050565b6000620020556020836200235e565b915062002062826200267e565b602082019050919050565b60006200207c6018836200235e565b91506200208982620026a7565b602082019050919050565b6200209f81620024ce565b82525050565b6000602082019050620020bc600083018462001eca565b92915050565b6000602082019050620020d9600083018462001e86565b92915050565b6000602082019050620020f6600083018462001ea8565b92915050565b600060608201905062002113600083018662001ea8565b62002122602083018562001eca565b62002131604083018462001ea8565b949350505050565b600060608201905062002150600083018662001eca565b6200215f602083018562001e86565b6200216e604083018462001fc0565b949350505050565b6000602082019050818103600083015262002192818462001edb565b905092915050565b60006020820190508181036000830152620021b6818462001f45565b905092915050565b6000602082019050620021d5600083018462001faf565b92915050565b6000602082019050620021f2600083018462001fc0565b92915050565b60006020820190508181036000830152620022138162001fd1565b9050919050565b60006020820190508181036000830152620022358162001ff8565b9050919050565b6000602082019050818103600083015262002257816200201f565b9050919050565b60006020820190508181036000830152620022798162002046565b9050919050565b600060208201905081810360008301526200229b816200206d565b9050919050565b6000602082019050620022b9600083018462002094565b92915050565b6000604082019050620022d6600083018562002094565b620022e5602083018462002094565b9392505050565b6000819050602082019050919050565b6000819050602082019050919050565b600081519050919050565b600081519050919050565b6000602082019050919050565b6000602082019050919050565b600082825260208201905092915050565b600082825260208201905092915050565b600082825260208201905092915050565b60006200237c82620024ce565b91506200238983620024ce565b9250827fffffffffffffffffffffffffffffffffffffffffffffffffffffffffffffffff03821115620023c157620023c062002576565b5b828201905092915050565b6000620023d982620024ce565b9150620023e683620024ce565b925082620023f957620023f8620025a5565b5b828204905092915050565b60006200241182620024ce565b91506200241e83620024ce565b9250817fffffffffffffffffffffffffffffffffffffffffffffffffffffffffffffffff04831182151516156200245a576200245962002576565b5b828202905092915050565b60006200247282620024ae565b9050919050565b60006200248682620024ae565b9050919050565b60008115159050919050565b6000819050620024a982620026d0565b919050565b600073ffffffffffffffffffffffffffffffffffffffff82169050919050565b6000819050919050565b6000620024e58262002500565b9050919050565b6000620024f98262002499565b9050919050565b60006200250d8262002514565b9050919050565b60006200252182620024ae565b9050919050565b60006200253582620024ce565b91507fffffffffffffffffffffffffffffffffffffffffffffffffffffffffffffffff8214156200256b576200256a62002576565b5b600182019050919050565b7f4e487b7100000000000000000000000000000000000000000000000000000000600052601160045260246000fd5b7f4e487b7100000000000000000000000000000000000000000000000000000000600052601260045260246000fd5b7f4e487b7100000000000000000000000000000000000000000000000000000000600052602160045260246000fd5b7f5468697320616464726573732068617320616c726561647920766f7465642100600082015250565b7f4465706f7369746f72206e6f7420616c6c6f77656420746f20766f7465210000600082015250565b7f4f6e6c79206d656d626572732063616e20766f74652100000000000000000000600082015250565b7f42656e6566696369617279206e6f7420616c6c6f77656420746f20766f746521600082015250565b7f4164647265737320616c72656164792062656c6f6e6773210000000000000000600082015250565b60038110620026e457620026e3620025d4565b5b50565b620026f28162002465565b8114620026fe57600080fd5b50565b6200270c8162002479565b81146200271857600080fd5b50565b6200272681620024ce565b81146200273257600080fd5b5056fe60806040526040516107d63803806107d683398181016040528101906100259190610119565b826000806101000a81548173ffffffffffffffffffffffffffffffffffffffff021916908373ffffffffffffffffffffffffffffffffffffffff16021790555080600160006101000a81548173ffffffffffffffffffffffffffffffffffffffff021916908373ffffffffffffffffffffffffffffffffffffffff16021790555081600260006101000a81548173ffffffffffffffffffffffffffffffffffffffff021916908373ffffffffffffffffffffffffffffffffffffffff1602179055505050506101da565b6000815190506100fe816101ac565b92915050565b600081519050610113816101c3565b92915050565b60008060006060848603121561012e57600080fd5b600061013c86828701610104565b935050602061014d868287016100ef565b925050604061015e86828701610104565b9150509250925092565b60006101738261018c565b9050919050565b60006101858261018c565b9050919050565b600073ffffffffffffffffffffffffffffffffffffffff82169050919050565b6101b581610168565b81146101c057600080fd5b50565b6101cc8161017a565b81146101d757600080fd5b50565b6105ed806101e96000396000f3fe6080604052600436106100595760003560e01c806312424e3f14610065578063200d2ed21461007c57806338af3eed146100a7578063a3fdfee3146100d2578063c7c4ff46146100e9578063fe25e00a1461011457610060565b3661006057005b600080fd5b34801561007157600080fd5b5061007a61013f565b005b34801561008857600080fd5b5061009161028c565b60405161009e91906104cb565b60405180910390f35b3480156100b357600080fd5b506100bc61029f565b6040516100c991906104b0565b60405180910390f35b3480156100de57600080fd5b506100e76102c5565b005b3480156100f557600080fd5b506100fe61040f565b60405161010b91906104b0565b60405180910390f35b34801561012057600080fd5b50610129610433565b6040516101369190610495565b60405180910390f35b600260009054906101000a900473ffffffffffffffffffffffffffffffffffffffff1673ffffffffffffffffffffffffffffffffffffffff163373ffffffffffffffffffffffffffffffffffffffff161461019957600080fd5b6001600260146101000a81548160ff021916908360028111156101e5577f4e487b7100000000000000000000000000000000000000000000000000000000600052602160045260246000fd5b02179055507f3ad93af63cb7967b23e4fb500b7d7d28b07516325dcf341f88bebf959d82c1cb4760405161021991906104e6565b60405180910390a1600160009054906101000a900473ffffffffffffffffffffffffffffffffffffffff1673ffffffffffffffffffffffffffffffffffffffff166108fc479081150290604051600060405180830381858888f19350505050158015610289573d6000803e3d6000fd5b50565b600260149054906101000a900460ff1681565b600160009054906101000a900473ffffffffffffffffffffffffffffffffffffffff1681565b600260009054906101000a900473ffffffffffffffffffffffffffffffffffffffff1673ffffffffffffffffffffffffffffffffffffffff163373ffffffffffffffffffffffffffffffffffffffff161461031f57600080fd5b60028060146101000a81548160ff0219169083600281111561036a577f4e487b7100000000000000000000000000000000000000000000000000000000600052602160045260246000fd5b02179055507f7e46dab6301cb35d8155d120339f166b39f0acf27f2a9a284977d4902c30aef54760405161039e91906104e6565b60405180910390a160008054906101000a900473ffffffffffffffffffffffffffffffffffffffff1673ffffffffffffffffffffffffffffffffffffffff166108fc479081150290604051600060405180830381858888f1935050505015801561040c573d6000803e3d6000fd5b50565b60008054906101000a900473ffffffffffffffffffffffffffffffffffffffff1681565b600260009054906101000a900473ffffffffffffffffffffffffffffffffffffffff1681565b61046281610513565b82525050565b61047181610501565b82525050565b61048081610562565b82525050565b61048f81610558565b82525050565b60006020820190506104aa6000830184610468565b92915050565b60006020820190506104c56000830184610459565b92915050565b60006020820190506104e06000830184610477565b92915050565b60006020820190506104fb6000830184610486565b92915050565b600061050c82610538565b9050919050565b600061051e82610538565b9050919050565b6000819050610533826105a3565b919050565b600073ffffffffffffffffffffffffffffffffffffffff82169050919050565b6000819050919050565b600061056d82610525565b9050919050565b7f4e487b7100000000000000000000000000000000000000000000000000000000600052602160045260246000fd5b600381106105b4576105b3610574565b5b5056fea2646970667358221220741330f576e54ef1d40d897802a6e8a073f6ac5a3843b9c1d31963d66ef7454564736f6c63430008040033a2646970667358221220e0c160108920a8569f828a0a35a534a2b8f797f911e225c5d2e0496a08be003064736f6c63430008040033",
  "linkReferences": {},
  "deployedLinkReferences": {}
}