{
  "_format": "hh-sol-artifact-1",
  "contractName": "EscrowDAO",
  "sourceName": "contracts/EscrowDAO.sol",
  "abi": [
    {
      "inputs": [],
      "stateMutability": "nonpayable",
      "type": "constructor"
    },
    {
      "anonymous": false,
      "inputs": [
        {
          "indexed": false,
          "internalType": "address",
          "name": "",
          "type": "address"
        }
      ],
      "name": "EscrowCreated",
      "type": "event"
    },
    {
      "anonymous": false,
      "inputs": [
        {
          "indexed": false,
          "internalType": "address",
          "name": "member",
          "type": "address"
        },
        {
          "indexed": false,
          "internalType": "address",
          "name": "escrow",
          "type": "address"
        },
        {
          "indexed": false,
          "internalType": "enum EscrowDAO.Vote",
          "name": "vote",
          "type": "uint8"
        }
      ],
      "name": "MemberVoted",
      "type": "event"
    },
    {
      "inputs": [
        {
          "internalType": "address",
          "name": "_address",
          "type": "address"
        }
      ],
      "name": "belongs",
      "outputs": [
        {
          "internalType": "bool",
          "name": "",
          "type": "bool"
        }
      ],
      "stateMutability": "view",
      "type": "function"
    },
    {
      "inputs": [
        {
          "internalType": "address payable",
          "name": "_beneficiary",
          "type": "address"
        }
      ],
      "name": "createEscrow",
      "outputs": [],
      "stateMutability": "payable",
      "type": "function"
    },
    {
      "inputs": [
        {
          "internalType": "uint256",
          "name": "",
          "type": "uint256"
        }
      ],
      "name": "escrows",
      "outputs": [
        {
          "internalType": "address payable",
          "name": "",
          "type": "address"
        }
      ],
      "stateMutability": "view",
      "type": "function"
    },
    {
      "inputs": [],
      "name": "getEscrows",
      "outputs": [
        {
          "internalType": "address payable[]",
          "name": "",
          "type": "address[]"
        }
      ],
      "stateMutability": "view",
      "type": "function"
    },
    {
      "inputs": [],
      "name": "getMembers",
      "outputs": [
        {
          "internalType": "address[]",
          "name": "",
          "type": "address[]"
        }
      ],
      "stateMutability": "view",
      "type": "function"
    },
    {
      "inputs": [
        {
          "internalType": "address",
          "name": "_escrow",
          "type": "address"
        }
      ],
      "name": "getNoVotes",
      "outputs": [
        {
          "internalType": "uint256",
          "name": "",
          "type": "uint256"
        }
      ],
      "stateMutability": "view",
      "type": "function"
    },
    {
      "inputs": [
        {
          "internalType": "address",
          "name": "_escrow",
          "type": "address"
        },
        {
          "internalType": "address",
          "name": "_member",
          "type": "address"
        }
      ],
      "name": "getVote",
      "outputs": [
        {
          "internalType": "enum EscrowDAO.Vote",
          "name": "",
          "type": "uint8"
        }
      ],
      "stateMutability": "view",
      "type": "function"
    },
    {
      "inputs": [
        {
          "internalType": "address",
          "name": "_escrow",
          "type": "address"
        }
      ],
      "name": "getVotes",
      "outputs": [
        {
          "internalType": "uint256",
          "name": "_yes",
          "type": "uint256"
        },
        {
          "internalType": "uint256",
          "name": "_no",
          "type": "uint256"
        }
      ],
      "stateMutability": "view",
      "type": "function"
    },
    {
      "inputs": [
        {
          "internalType": "address",
          "name": "_escrow",
          "type": "address"
        }
      ],
      "name": "getYesVotes",
      "outputs": [
        {
          "internalType": "uint256",
          "name": "",
          "type": "uint256"
        }
      ],
      "stateMutability": "view",
      "type": "function"
    },
    {
      "inputs": [],
      "name": "join",
      "outputs": [],
      "stateMutability": "nonpayable",
      "type": "function"
    },
    {
      "inputs": [
        {
          "internalType": "uint256",
          "name": "",
          "type": "uint256"
        }
      ],
      "name": "members",
      "outputs": [
        {
          "internalType": "address",
          "name": "",
          "type": "address"
        }
      ],
      "stateMutability": "view",
      "type": "function"
    },
    {
      "inputs": [
        {
          "internalType": "address payable",
          "name": "_escrow",
          "type": "address"
        }
      ],
      "name": "voteNo",
      "outputs": [],
      "stateMutability": "nonpayable",
      "type": "function"
    },
    {
      "inputs": [
        {
          "internalType": "address payable",
          "name": "_escrow",
          "type": "address"
        }
      ],
      "name": "voteYes",
      "outputs": [],
      "stateMutability": "nonpayable",
      "type": "function"
    }
  ],
  "bytecode": "0x608060405234801561001057600080fd5b506000339080600181540180825580915050600190039060005260206000200160009091909190916101000a81548173ffffffffffffffffffffffffffffffffffffffff021916908373ffffffffffffffffffffffffffffffffffffffff16021790555061267a806100836000396000f3fe608060405260043610620000d45760003560e01c80636afcb6da116200008b5780639eab525311620000615780639eab52531462000314578063b688a3631462000344578063e40297c9146200035e578063f6a8419e146200038c57620000d4565b80636afcb6da146200025b5780637133d9fb146200028b5780639ab24eb014620002cf57620000d4565b8063012f52ee14620000d95780632dc1e44e146200011d5780632e5cadad14620001615780633899b087146200018f5780635ab4f16214620001d35780635daf08ca1462000217575b600080fd5b348015620000e657600080fd5b50620001056004803603810190620000ff919062001627565b620003ac565b604051620001149190620018e0565b60405180910390f35b3480156200012a57600080fd5b5062000149600480360381019062000143919062001562565b620003ec565b60405162000158919062001aa3565b60405180910390f35b3480156200016e57600080fd5b506200018d60048036038101906200018791906200158e565b62000438565b005b3480156200019c57600080fd5b50620001bb6004803603810190620001b5919062001562565b620009cb565b604051620001ca9190620019bf565b60405180910390f35b348015620001e057600080fd5b50620001ff6004803603810190620001f99190620015e6565b62000aa7565b6040516200020e9190620019dc565b60405180910390f35b3480156200022457600080fd5b506200024360048036038101906200023d919062001627565b62000b3e565b604051620002529190620018a6565b60405180910390f35b3480156200026857600080fd5b506200027362000b7e565b6040516200028291906200199b565b60405180910390f35b3480156200029857600080fd5b50620002b76004803603810190620002b1919062001562565b62000c0e565b604051620002c6919062001aa3565b60405180910390f35b348015620002dc57600080fd5b50620002fb6004803603810190620002f5919062001562565b62000c5a565b6040516200030b92919062001ac0565b60405180910390f35b3480156200032157600080fd5b506200032c62000cec565b6040516200033b919062001977565b60405180910390f35b3480156200035157600080fd5b506200035c62000d7c565b005b3480156200036b57600080fd5b506200038a60048036038101906200038491906200158e565b62000e35565b005b620003aa6004803603810190620003a491906200158e565b620013c9565b005b60018181548110620003bd57600080fd5b906000526020600020016000915054906101000a900473ffffffffffffffffffffffffffffffffffffffff1681565b6000600260008373ffffffffffffffffffffffffffffffffffffffff1673ffffffffffffffffffffffffffffffffffffffff168152602001908152602001600020600101549050919050565b806200044433620009cb565b62000486576040517f08c379a00000000000000000000000000000000000000000000000000000000081526004016200047d9062001a3d565b60405180910390fd5b60006002811115620004c1577f4e487b7100000000000000000000000000000000000000000000000000000000600052602160045260246000fd5b600260008373ffffffffffffffffffffffffffffffffffffffff1673ffffffffffffffffffffffffffffffffffffffff16815260200190815260200160002060020160003373ffffffffffffffffffffffffffffffffffffffff1673ffffffffffffffffffffffffffffffffffffffff16815260200190815260200160002060009054906101000a900460ff16600281111562000587577f4e487b7100000000000000000000000000000000000000000000000000000000600052602160045260246000fd5b14620005ca576040517f08c379a0000000000000000000000000000000000000000000000000000000008152600401620005c190620019f9565b60405180910390fd5b3373ffffffffffffffffffffffffffffffffffffffff168173ffffffffffffffffffffffffffffffffffffffff1663c7c4ff466040518163ffffffff1660e01b815260040160206040518083038186803b1580156200062857600080fd5b505afa1580156200063d573d6000803e3d6000fd5b505050506040513d601f19601f82011682018060405250810190620006639190620015ba565b73ffffffffffffffffffffffffffffffffffffffff161415620006bd576040517f08c379a0000000000000000000000000000000000000000000000000000000008152600401620006b49062001a1b565b60405180910390fd5b3373ffffffffffffffffffffffffffffffffffffffff168173ffffffffffffffffffffffffffffffffffffffff166338af3eed6040518163ffffffff1660e01b815260040160206040518083038186803b1580156200071b57600080fd5b505afa15801562000730573d6000803e3d6000fd5b505050506040513d601f19601f82011682018060405250810190620007569190620015ba565b73ffffffffffffffffffffffffffffffffffffffff161415620007b0576040517f08c379a0000000000000000000000000000000000000000000000000000000008152600401620007a79062001a5f565b60405180910390fd5b60028060008473ffffffffffffffffffffffffffffffffffffffff1673ffffffffffffffffffffffffffffffffffffffff16815260200190815260200160002060020160003373ffffffffffffffffffffffffffffffffffffffff1673ffffffffffffffffffffffffffffffffffffffff16815260200190815260200160002060006101000a81548160ff0219169083600281111562000879577f4e487b7100000000000000000000000000000000000000000000000000000000600052602160045260246000fd5b02179055506001600260008473ffffffffffffffffffffffffffffffffffffffff1673ffffffffffffffffffffffffffffffffffffffff1681526020019081526020016000206001016000828254620008d3919062001b70565b925050819055507f74aee70ff0c1f965f958c04aaf3ae32d5b64ef243749268cc467dbbe218d49de3383600260405162000910939291906200193a565b60405180910390a16003600260008473ffffffffffffffffffffffffffffffffffffffff1673ffffffffffffffffffffffffffffffffffffffff168152602001908152602001600020600101541415620009c7578173ffffffffffffffffffffffffffffffffffffffff1663a3fdfee36040518163ffffffff1660e01b8152600401600060405180830381600087803b158015620009ad57600080fd5b505af1158015620009c2573d6000803e3d6000fd5b505050505b5050565b600080600090505b60008054905081101562000a9c578273ffffffffffffffffffffffffffffffffffffffff166000828154811062000a33577f4e487b7100000000000000000000000000000000000000000000000000000000600052603260045260246000fd5b9060005260206000200160009054906101000a900473ffffffffffffffffffffffffffffffffffffffff1673ffffffffffffffffffffffffffffffffffffffff16141562000a8657600191505062000aa2565b808062000a939062001c90565b915050620009d3565b50600090505b919050565b6000600260008473ffffffffffffffffffffffffffffffffffffffff1673ffffffffffffffffffffffffffffffffffffffff16815260200190815260200160002060020160008373ffffffffffffffffffffffffffffffffffffffff1673ffffffffffffffffffffffffffffffffffffffff16815260200190815260200160002060009054906101000a900460ff16905092915050565b6000818154811062000b4f57600080fd5b906000526020600020016000915054906101000a900473ffffffffffffffffffffffffffffffffffffffff1681565b6060600180548060200260200160405190810160405280929190818152602001828054801562000c0457602002820191906000526020600020905b8160009054906101000a900473ffffffffffffffffffffffffffffffffffffffff1673ffffffffffffffffffffffffffffffffffffffff168152602001906001019080831162000bb9575b5050505050905090565b6000600260008373ffffffffffffffffffffffffffffffffffffffff1673ffffffffffffffffffffffffffffffffffffffff168152602001908152602001600020600001549050919050565b600080600260008473ffffffffffffffffffffffffffffffffffffffff1673ffffffffffffffffffffffffffffffffffffffff16815260200190815260200160002060000154600260008573ffffffffffffffffffffffffffffffffffffffff1673ffffffffffffffffffffffffffffffffffffffff1681526020019081526020016000206001015491509150915091565b6060600080548060200260200160405190810160405280929190818152602001828054801562000d7257602002820191906000526020600020905b8160009054906101000a900473ffffffffffffffffffffffffffffffffffffffff1673ffffffffffffffffffffffffffffffffffffffff168152602001906001019080831162000d27575b5050505050905090565b6000151562000d8b33620009cb565b15151462000dd0576040517f08c379a000000000000000000000000000000000000000000000000000000000815260040162000dc79062001a81565b60405180910390fd5b6000339080600181540180825580915050600190039060005260206000200160009091909190916101000a81548173ffffffffffffffffffffffffffffffffffffffff021916908373ffffffffffffffffffffffffffffffffffffffff160217905550565b8062000e4133620009cb565b62000e83576040517f08c379a000000000000000000000000000000000000000000000000000000000815260040162000e7a9062001a3d565b60405180910390fd5b6000600281111562000ebe577f4e487b7100000000000000000000000000000000000000000000000000000000600052602160045260246000fd5b600260008373ffffffffffffffffffffffffffffffffffffffff1673ffffffffffffffffffffffffffffffffffffffff16815260200190815260200160002060020160003373ffffffffffffffffffffffffffffffffffffffff1673ffffffffffffffffffffffffffffffffffffffff16815260200190815260200160002060009054906101000a900460ff16600281111562000f84577f4e487b7100000000000000000000000000000000000000000000000000000000600052602160045260246000fd5b1462000fc7576040517f08c379a000000000000000000000000000000000000000000000000000000000815260040162000fbe90620019f9565b60405180910390fd5b3373ffffffffffffffffffffffffffffffffffffffff168173ffffffffffffffffffffffffffffffffffffffff1663c7c4ff466040518163ffffffff1660e01b815260040160206040518083038186803b1580156200102557600080fd5b505afa1580156200103a573d6000803e3d6000fd5b505050506040513d601f19601f82011682018060405250810190620010609190620015ba565b73ffffffffffffffffffffffffffffffffffffffff161415620010ba576040517f08c379a0000000000000000000000000000000000000000000000000000000008152600401620010b19062001a1b565b60405180910390fd5b3373ffffffffffffffffffffffffffffffffffffffff168173ffffffffffffffffffffffffffffffffffffffff166338af3eed6040518163ffffffff1660e01b815260040160206040518083038186803b1580156200111857600080fd5b505afa1580156200112d573d6000803e3d6000fd5b505050506040513d601f19601f82011682018060405250810190620011539190620015ba565b73ffffffffffffffffffffffffffffffffffffffff161415620011ad576040517f08c379a0000000000000000000000000000000000000000000000000000000008152600401620011a49062001a5f565b60405180910390fd5b6001600260008473ffffffffffffffffffffffffffffffffffffffff1673ffffffffffffffffffffffffffffffffffffffff16815260200190815260200160002060020160003373ffffffffffffffffffffffffffffffffffffffff1673ffffffffffffffffffffffffffffffffffffffff16815260200190815260200160002060006101000a81548160ff0219169083600281111562001277577f4e487b7100000000000000000000000000000000000000000000000000000000600052602160045260246000fd5b02179055506001600260008473ffffffffffffffffffffffffffffffffffffffff1673ffffffffffffffffffffffffffffffffffffffff1681526020019081526020016000206000016000828254620012d1919062001b70565b925050819055507f74aee70ff0c1f965f958c04aaf3ae32d5b64ef243749268cc467dbbe218d49de338360016040516200130e939291906200193a565b60405180910390a16003600260008473ffffffffffffffffffffffffffffffffffffffff1673ffffffffffffffffffffffffffffffffffffffff168152602001908152602001600020600001541415620013c5578173ffffffffffffffffffffffffffffffffffffffff166312424e3f6040518163ffffffff1660e01b8152600401600060405180830381600087803b158015620013ab57600080fd5b505af1158015620013c0573d6000803e3d6000fd5b505050505b5050565b6000333083604051620013dc90620014f8565b620013ea93929190620018fd565b604051809103906000f08015801562001407573d6000803e3d6000fd5b50905060008190508073ffffffffffffffffffffffffffffffffffffffff166108fc349081150290604051600060405180830381858888f1935050505015801562001456573d6000803e3d6000fd5b506001819080600181540180825580915050600190039060005260206000200160009091909190916101000a81548173ffffffffffffffffffffffffffffffffffffffff021916908373ffffffffffffffffffffffffffffffffffffffff1602179055507fdc172423e65e4eb718110c42ad3b66ac4b0a613e4d07bfb55f2477f2d1bf34eb81604051620014eb9190620018c3565b60405180910390a1505050565b6107d68062001e6f83390190565b600081359050620015178162001e20565b92915050565b6000813590506200152e8162001e3a565b92915050565b600081519050620015458162001e3a565b92915050565b6000813590506200155c8162001e54565b92915050565b6000602082840312156200157557600080fd5b6000620015858482850162001506565b91505092915050565b600060208284031215620015a157600080fd5b6000620015b1848285016200151d565b91505092915050565b600060208284031215620015cd57600080fd5b6000620015dd8482850162001534565b91505092915050565b60008060408385031215620015fa57600080fd5b60006200160a8582860162001506565b92505060206200161d8582860162001506565b9150509250929050565b6000602082840312156200163a57600080fd5b60006200164a848285016200154b565b91505092915050565b600062001661838362001698565b60208301905092915050565b60006200167b8383620016ba565b60208301905092915050565b620016928162001c40565b82525050565b620016a38162001be1565b82525050565b620016b48162001be1565b82525050565b620016c58162001bcd565b82525050565b620016d68162001bcd565b82525050565b6000620016e98262001b0d565b620016f5818562001b3d565b9350620017028362001aed565b8060005b83811015620017395781516200171d88826200166d565b97506200172a8362001b23565b92505060018101905062001706565b5085935050505092915050565b6000620017538262001b18565b6200175f818562001b4e565b93506200176c8362001afd565b8060005b83811015620017a357815162001787888262001653565b9750620017948362001b30565b92505060018101905062001770565b5085935050505092915050565b620017bb8162001bf5565b82525050565b620017cc8162001c54565b82525050565b6000620017e1601f8362001b5f565b9150620017ee8262001d3c565b602082019050919050565b600062001808601e8362001b5f565b9150620018158262001d65565b602082019050919050565b60006200182f60168362001b5f565b91506200183c8262001d8e565b602082019050919050565b60006200185660208362001b5f565b9150620018638262001db7565b602082019050919050565b60006200187d60188362001b5f565b91506200188a8262001de0565b602082019050919050565b620018a08162001c36565b82525050565b6000602082019050620018bd6000830184620016cb565b92915050565b6000602082019050620018da600083018462001687565b92915050565b6000602082019050620018f76000830184620016a9565b92915050565b6000606082019050620019146000830186620016a9565b620019236020830185620016cb565b620019326040830184620016a9565b949350505050565b6000606082019050620019516000830186620016cb565b62001960602083018562001687565b6200196f6040830184620017c1565b949350505050565b60006020820190508181036000830152620019938184620016dc565b905092915050565b60006020820190508181036000830152620019b7818462001746565b905092915050565b6000602082019050620019d66000830184620017b0565b92915050565b6000602082019050620019f36000830184620017c1565b92915050565b6000602082019050818103600083015262001a1481620017d2565b9050919050565b6000602082019050818103600083015262001a3681620017f9565b9050919050565b6000602082019050818103600083015262001a588162001820565b9050919050565b6000602082019050818103600083015262001a7a8162001847565b9050919050565b6000602082019050818103600083015262001a9c816200186e565b9050919050565b600060208201905062001aba600083018462001895565b92915050565b600060408201905062001ad7600083018562001895565b62001ae6602083018462001895565b9392505050565b6000819050602082019050919050565b6000819050602082019050919050565b600081519050919050565b600081519050919050565b6000602082019050919050565b6000602082019050919050565b600082825260208201905092915050565b600082825260208201905092915050565b600082825260208201905092915050565b600062001b7d8262001c36565b915062001b8a8362001c36565b9250827fffffffffffffffffffffffffffffffffffffffffffffffffffffffffffffffff0382111562001bc25762001bc162001cde565b5b828201905092915050565b600062001bda8262001c16565b9050919050565b600062001bee8262001c16565b9050919050565b60008115159050919050565b600081905062001c118262001e09565b919050565b600073ffffffffffffffffffffffffffffffffffffffff82169050919050565b6000819050919050565b600062001c4d8262001c68565b9050919050565b600062001c618262001c01565b9050919050565b600062001c758262001c7c565b9050919050565b600062001c898262001c16565b9050919050565b600062001c9d8262001c36565b91507fffffffffffffffffffffffffffffffffffffffffffffffffffffffffffffffff82141562001cd35762001cd262001cde565b5b600182019050919050565b7f4e487b7100000000000000000000000000000000000000000000000000000000600052601160045260246000fd5b7f4e487b7100000000000000000000000000000000000000000000000000000000600052602160045260246000fd5b7f5468697320616464726573732068617320616c726561647920766f7465642100600082015250565b7f4465706f7369746f72206e6f7420616c6c6f77656420746f20766f7465210000600082015250565b7f4f6e6c79206d656d626572732063616e20766f74652100000000000000000000600082015250565b7f42656e6566696369617279206e6f7420616c6c6f77656420746f20766f746521600082015250565b7f4164647265737320616c72656164792062656c6f6e6773210000000000000000600082015250565b6003811062001e1d5762001e1c62001d0d565b5b50565b62001e2b8162001bcd565b811462001e3757600080fd5b50565b62001e458162001be1565b811462001e5157600080fd5b50565b62001e5f8162001c36565b811462001e6b57600080fd5b5056fe60806040526040516107d63803806107d683398181016040528101906100259190610119565b826000806101000a81548173ffffffffffffffffffffffffffffffffffffffff021916908373ffffffffffffffffffffffffffffffffffffffff16021790555080600160006101000a81548173ffffffffffffffffffffffffffffffffffffffff021916908373ffffffffffffffffffffffffffffffffffffffff16021790555081600260006101000a81548173ffffffffffffffffffffffffffffffffffffffff021916908373ffffffffffffffffffffffffffffffffffffffff1602179055505050506101da565b6000815190506100fe816101ac565b92915050565b600081519050610113816101c3565b92915050565b60008060006060848603121561012e57600080fd5b600061013c86828701610104565b935050602061014d868287016100ef565b925050604061015e86828701610104565b9150509250925092565b60006101738261018c565b9050919050565b60006101858261018c565b9050919050565b600073ffffffffffffffffffffffffffffffffffffffff82169050919050565b6101b581610168565b81146101c057600080fd5b50565b6101cc8161017a565b81146101d757600080fd5b50565b6105ed806101e96000396000f3fe6080604052600436106100595760003560e01c806312424e3f14610065578063200d2ed21461007c57806338af3eed146100a7578063a3fdfee3146100d2578063c7c4ff46146100e9578063fe25e00a1461011457610060565b3661006057005b600080fd5b34801561007157600080fd5b5061007a61013f565b005b34801561008857600080fd5b5061009161028c565b60405161009e91906104cb565b60405180910390f35b3480156100b357600080fd5b506100bc61029f565b6040516100c991906104b0565b60405180910390f35b3480156100de57600080fd5b506100e76102c5565b005b3480156100f557600080fd5b506100fe61040f565b60405161010b91906104b0565b60405180910390f35b34801561012057600080fd5b50610129610433565b6040516101369190610495565b60405180910390f35b600260009054906101000a900473ffffffffffffffffffffffffffffffffffffffff1673ffffffffffffffffffffffffffffffffffffffff163373ffffffffffffffffffffffffffffffffffffffff161461019957600080fd5b6001600260146101000a81548160ff021916908360028111156101e5577f4e487b7100000000000000000000000000000000000000000000000000000000600052602160045260246000fd5b02179055507f3ad93af63cb7967b23e4fb500b7d7d28b07516325dcf341f88bebf959d82c1cb4760405161021991906104e6565b60405180910390a1600160009054906101000a900473ffffffffffffffffffffffffffffffffffffffff1673ffffffffffffffffffffffffffffffffffffffff166108fc479081150290604051600060405180830381858888f19350505050158015610289573d6000803e3d6000fd5b50565b600260149054906101000a900460ff1681565b600160009054906101000a900473ffffffffffffffffffffffffffffffffffffffff1681565b600260009054906101000a900473ffffffffffffffffffffffffffffffffffffffff1673ffffffffffffffffffffffffffffffffffffffff163373ffffffffffffffffffffffffffffffffffffffff161461031f57600080fd5b60028060146101000a81548160ff0219169083600281111561036a577f4e487b7100000000000000000000000000000000000000000000000000000000600052602160045260246000fd5b02179055507f7e46dab6301cb35d8155d120339f166b39f0acf27f2a9a284977d4902c30aef54760405161039e91906104e6565b60405180910390a160008054906101000a900473ffffffffffffffffffffffffffffffffffffffff1673ffffffffffffffffffffffffffffffffffffffff166108fc479081150290604051600060405180830381858888f1935050505015801561040c573d6000803e3d6000fd5b50565b60008054906101000a900473ffffffffffffffffffffffffffffffffffffffff1681565b600260009054906101000a900473ffffffffffffffffffffffffffffffffffffffff1681565b61046281610513565b82525050565b61047181610501565b82525050565b61048081610562565b82525050565b61048f81610558565b82525050565b60006020820190506104aa6000830184610468565b92915050565b60006020820190506104c56000830184610459565b92915050565b60006020820190506104e06000830184610477565b92915050565b60006020820190506104fb6000830184610486565b92915050565b600061050c82610538565b9050919050565b600061051e82610538565b9050919050565b6000819050610533826105a3565b919050565b600073ffffffffffffffffffffffffffffffffffffffff82169050919050565b6000819050919050565b600061056d82610525565b9050919050565b7f4e487b7100000000000000000000000000000000000000000000000000000000600052602160045260246000fd5b600381106105b4576105b3610574565b5b5056fea2646970667358221220741330f576e54ef1d40d897802a6e8a073f6ac5a3843b9c1d31963d66ef7454564736f6c63430008040033a2646970667358221220eccaf537b4cf1f7a7552ef411f2942daef7fd822ce6f63f111756411dfed8ad364736f6c63430008040033",
  "linkReferences": {},
  "deployedLinkReferences": {}
}