{
  "_format": "hh-sol-artifact-1",
  "contractName": "EscrowDAO",
  "sourceName": "contracts/EscrowDAO.sol",
  "abi": [
    {
      "inputs": [],
      "stateMutability": "nonpayable",
      "type": "constructor"
    },
    {
      "anonymous": false,
      "inputs": [
        {
          "indexed": false,
          "internalType": "address",
          "name": "",
          "type": "address"
        }
      ],
      "name": "EscrowCreated",
      "type": "event"
    },
    {
      "anonymous": false,
      "inputs": [
        {
          "indexed": false,
          "internalType": "address",
          "name": "member",
          "type": "address"
        },
        {
          "indexed": false,
          "internalType": "address",
          "name": "escrow",
          "type": "address"
        },
        {
          "indexed": false,
          "internalType": "enum EscrowDAO.Vote",
          "name": "vote",
          "type": "uint8"
        }
      ],
      "name": "MemberVoted",
      "type": "event"
    },
    {
      "inputs": [
        {
          "internalType": "address",
          "name": "_address",
          "type": "address"
        }
      ],
      "name": "belongs",
      "outputs": [
        {
          "internalType": "bool",
          "name": "",
          "type": "bool"
        }
      ],
      "stateMutability": "view",
      "type": "function"
    },
    {
      "inputs": [
        {
          "internalType": "address payable",
          "name": "_beneficiary",
          "type": "address"
        }
      ],
      "name": "createEscrow",
      "outputs": [],
      "stateMutability": "payable",
      "type": "function"
    },
    {
      "inputs": [
        {
          "internalType": "uint256",
          "name": "",
          "type": "uint256"
        }
      ],
      "name": "escrows",
      "outputs": [
        {
          "internalType": "address payable",
          "name": "",
          "type": "address"
        }
      ],
      "stateMutability": "view",
      "type": "function"
    },
    {
      "inputs": [],
      "name": "getEscrows",
      "outputs": [
        {
          "internalType": "address payable[]",
          "name": "",
          "type": "address[]"
        }
      ],
      "stateMutability": "view",
      "type": "function"
    },
    {
      "inputs": [],
      "name": "getMembers",
      "outputs": [
        {
          "internalType": "address[]",
          "name": "",
          "type": "address[]"
        }
      ],
      "stateMutability": "view",
      "type": "function"
    },
    {
      "inputs": [
        {
          "internalType": "address",
          "name": "_escrow",
          "type": "address"
        }
      ],
      "name": "getNoVotes",
      "outputs": [
        {
          "internalType": "uint256",
          "name": "",
          "type": "uint256"
        }
      ],
      "stateMutability": "view",
      "type": "function"
    },
    {
      "inputs": [
        {
          "internalType": "address",
          "name": "_escrow",
          "type": "address"
        },
        {
          "internalType": "address",
          "name": "_member",
          "type": "address"
        }
      ],
      "name": "getVote",
      "outputs": [
        {
          "internalType": "enum EscrowDAO.Vote",
          "name": "",
          "type": "uint8"
        }
      ],
      "stateMutability": "view",
      "type": "function"
    },
    {
      "inputs": [
        {
          "internalType": "address",
          "name": "_escrow",
          "type": "address"
        }
      ],
      "name": "getVotes",
      "outputs": [
        {
          "internalType": "uint256",
          "name": "_yes",
          "type": "uint256"
        },
        {
          "internalType": "uint256",
          "name": "_no",
          "type": "uint256"
        }
      ],
      "stateMutability": "view",
      "type": "function"
    },
    {
      "inputs": [
        {
          "internalType": "address",
          "name": "_escrow",
          "type": "address"
        }
      ],
      "name": "getYesVotes",
      "outputs": [
        {
          "internalType": "uint256",
          "name": "",
          "type": "uint256"
        }
      ],
      "stateMutability": "view",
      "type": "function"
    },
    {
      "inputs": [],
      "name": "join",
      "outputs": [],
      "stateMutability": "nonpayable",
      "type": "function"
    },
    {
      "inputs": [
        {
          "internalType": "uint256",
          "name": "",
          "type": "uint256"
        }
      ],
      "name": "members",
      "outputs": [
        {
          "internalType": "address",
          "name": "",
          "type": "address"
        }
      ],
      "stateMutability": "view",
      "type": "function"
    },
    {
      "inputs": [],
      "name": "volume",
      "outputs": [
        {
          "internalType": "uint256",
          "name": "",
          "type": "uint256"
        }
      ],
      "stateMutability": "view",
      "type": "function"
    },
    {
      "inputs": [
        {
          "internalType": "address payable",
          "name": "_escrow",
          "type": "address"
        }
      ],
      "name": "voteNo",
      "outputs": [],
      "stateMutability": "nonpayable",
      "type": "function"
    },
    {
      "inputs": [
        {
          "internalType": "address payable",
          "name": "_escrow",
          "type": "address"
        }
      ],
      "name": "voteYes",
      "outputs": [],
      "stateMutability": "nonpayable",
      "type": "function"
    }
  ],
  "bytecode": "0x608060405234801561001057600080fd5b506000339080600181540180825580915050600190039060005260206000200160009091909190916101000a81548173ffffffffffffffffffffffffffffffffffffffff021916908373ffffffffffffffffffffffffffffffffffffffff1602179055506127cc806100836000396000f3fe608060405260043610620000f25760003560e01c80637133d9fb116200008b578063b688a3631162000061578063b688a3631462000362578063c618a1e4146200037c578063e40297c914620003ac578063f6a8419e14620003da57620000f2565b80637133d9fb14620002a95780639ab24eb014620002ed5780639eab5253146200033257620000f2565b80633899b08711620000cd5780633899b08714620001ad5780635ab4f16214620001f15780635daf08ca14620002355780636afcb6da146200027957620000f2565b8063012f52ee14620000f75780632dc1e44e146200013b5780632e5cadad146200017f575b600080fd5b3480156200010457600080fd5b506200012360048036038101906200011d9190620016b1565b620003fa565b6040516200013291906200196a565b60405180910390f35b3480156200014857600080fd5b50620001676004803603810190620001619190620015ec565b6200043a565b60405162000176919062001b2d565b60405180910390f35b3480156200018c57600080fd5b50620001ab6004803603810190620001a5919062001618565b62000486565b005b348015620001ba57600080fd5b50620001d96004803603810190620001d39190620015ec565b62000a19565b604051620001e8919062001a49565b60405180910390f35b348015620001fe57600080fd5b506200021d600480360381019062000217919062001670565b62000af5565b6040516200022c919062001a66565b60405180910390f35b3480156200024257600080fd5b506200026160048036038101906200025b9190620016b1565b62000b8c565b60405162000270919062001930565b60405180910390f35b3480156200028657600080fd5b506200029162000bcc565b604051620002a0919062001a25565b60405180910390f35b348015620002b657600080fd5b50620002d56004803603810190620002cf9190620015ec565b62000c5c565b604051620002e4919062001b2d565b60405180910390f35b348015620002fa57600080fd5b50620003196004803603810190620003139190620015ec565b62000ca8565b6040516200032992919062001b4a565b60405180910390f35b3480156200033f57600080fd5b506200034a62000d3a565b60405162000359919062001a01565b60405180910390f35b3480156200036f57600080fd5b506200037a62000dca565b005b3480156200038957600080fd5b506200039462000e83565b604051620003a3919062001b2d565b60405180910390f35b348015620003b957600080fd5b50620003d86004803603810190620003d2919062001618565b62000e89565b005b620003f86004803603810190620003f2919062001618565b6200141c565b005b600181815481106200040b57600080fd5b906000526020600020016000915054906101000a900473ffffffffffffffffffffffffffffffffffffffff1681565b6000600360008373ffffffffffffffffffffffffffffffffffffffff1673ffffffffffffffffffffffffffffffffffffffff168152602001908152602001600020600101549050919050565b80620004923362000a19565b620004d4576040517f08c379a0000000000000000000000000000000000000000000000000000000008152600401620004cb9062001ac7565b60405180910390fd5b600060028111156200050f577f4e487b7100000000000000000000000000000000000000000000000000000000600052602160045260246000fd5b600360008373ffffffffffffffffffffffffffffffffffffffff1673ffffffffffffffffffffffffffffffffffffffff16815260200190815260200160002060020160003373ffffffffffffffffffffffffffffffffffffffff1673ffffffffffffffffffffffffffffffffffffffff16815260200190815260200160002060009054906101000a900460ff166002811115620005d5577f4e487b7100000000000000000000000000000000000000000000000000000000600052602160045260246000fd5b1462000618576040517f08c379a00000000000000000000000000000000000000000000000000000000081526004016200060f9062001a83565b60405180910390fd5b3373ffffffffffffffffffffffffffffffffffffffff168173ffffffffffffffffffffffffffffffffffffffff1663c7c4ff466040518163ffffffff1660e01b815260040160206040518083038186803b1580156200067657600080fd5b505afa1580156200068b573d6000803e3d6000fd5b505050506040513d601f19601f82011682018060405250810190620006b1919062001644565b73ffffffffffffffffffffffffffffffffffffffff1614156200070b576040517f08c379a0000000000000000000000000000000000000000000000000000000008152600401620007029062001aa5565b60405180910390fd5b3373ffffffffffffffffffffffffffffffffffffffff168173ffffffffffffffffffffffffffffffffffffffff166338af3eed6040518163ffffffff1660e01b815260040160206040518083038186803b1580156200076957600080fd5b505afa1580156200077e573d6000803e3d6000fd5b505050506040513d601f19601f82011682018060405250810190620007a4919062001644565b73ffffffffffffffffffffffffffffffffffffffff161415620007fe576040517f08c379a0000000000000000000000000000000000000000000000000000000008152600401620007f59062001ae9565b60405180910390fd5b6002600360008473ffffffffffffffffffffffffffffffffffffffff1673ffffffffffffffffffffffffffffffffffffffff16815260200190815260200160002060020160003373ffffffffffffffffffffffffffffffffffffffff1673ffffffffffffffffffffffffffffffffffffffff16815260200190815260200160002060006101000a81548160ff02191690836002811115620008c8577f4e487b7100000000000000000000000000000000000000000000000000000000600052602160045260246000fd5b02179055506001600360008473ffffffffffffffffffffffffffffffffffffffff1673ffffffffffffffffffffffffffffffffffffffff168152602001908152602001600020600101600082825462000922919062001bfa565b925050819055507f74aee70ff0c1f965f958c04aaf3ae32d5b64ef243749268cc467dbbe218d49de338360026040516200095f93929190620019c4565b60405180910390a160038060008473ffffffffffffffffffffffffffffffffffffffff1673ffffffffffffffffffffffffffffffffffffffff16815260200190815260200160002060010154141562000a15578173ffffffffffffffffffffffffffffffffffffffff1663a3fdfee36040518163ffffffff1660e01b8152600401600060405180830381600087803b158015620009fb57600080fd5b505af115801562000a10573d6000803e3d6000fd5b505050505b5050565b600080600090505b60008054905081101562000aea578273ffffffffffffffffffffffffffffffffffffffff166000828154811062000a81577f4e487b7100000000000000000000000000000000000000000000000000000000600052603260045260246000fd5b9060005260206000200160009054906101000a900473ffffffffffffffffffffffffffffffffffffffff1673ffffffffffffffffffffffffffffffffffffffff16141562000ad457600191505062000af0565b808062000ae19062001db3565b91505062000a21565b50600090505b919050565b6000600360008473ffffffffffffffffffffffffffffffffffffffff1673ffffffffffffffffffffffffffffffffffffffff16815260200190815260200160002060020160008373ffffffffffffffffffffffffffffffffffffffff1673ffffffffffffffffffffffffffffffffffffffff16815260200190815260200160002060009054906101000a900460ff16905092915050565b6000818154811062000b9d57600080fd5b906000526020600020016000915054906101000a900473ffffffffffffffffffffffffffffffffffffffff1681565b6060600180548060200260200160405190810160405280929190818152602001828054801562000c5257602002820191906000526020600020905b8160009054906101000a900473ffffffffffffffffffffffffffffffffffffffff1673ffffffffffffffffffffffffffffffffffffffff168152602001906001019080831162000c07575b5050505050905090565b6000600360008373ffffffffffffffffffffffffffffffffffffffff1673ffffffffffffffffffffffffffffffffffffffff168152602001908152602001600020600001549050919050565b600080600360008473ffffffffffffffffffffffffffffffffffffffff1673ffffffffffffffffffffffffffffffffffffffff16815260200190815260200160002060000154600360008573ffffffffffffffffffffffffffffffffffffffff1673ffffffffffffffffffffffffffffffffffffffff1681526020019081526020016000206001015491509150915091565b6060600080548060200260200160405190810160405280929190818152602001828054801562000dc057602002820191906000526020600020905b8160009054906101000a900473ffffffffffffffffffffffffffffffffffffffff1673ffffffffffffffffffffffffffffffffffffffff168152602001906001019080831162000d75575b5050505050905090565b6000151562000dd93362000a19565b15151462000e1e576040517f08c379a000000000000000000000000000000000000000000000000000000000815260040162000e159062001b0b565b60405180910390fd5b6000339080600181540180825580915050600190039060005260206000200160009091909190916101000a81548173ffffffffffffffffffffffffffffffffffffffff021916908373ffffffffffffffffffffffffffffffffffffffff160217905550565b60025481565b8062000e953362000a19565b62000ed7576040517f08c379a000000000000000000000000000000000000000000000000000000000815260040162000ece9062001ac7565b60405180910390fd5b6000600281111562000f12577f4e487b7100000000000000000000000000000000000000000000000000000000600052602160045260246000fd5b600360008373ffffffffffffffffffffffffffffffffffffffff1673ffffffffffffffffffffffffffffffffffffffff16815260200190815260200160002060020160003373ffffffffffffffffffffffffffffffffffffffff1673ffffffffffffffffffffffffffffffffffffffff16815260200190815260200160002060009054906101000a900460ff16600281111562000fd8577f4e487b7100000000000000000000000000000000000000000000000000000000600052602160045260246000fd5b146200101b576040517f08c379a0000000000000000000000000000000000000000000000000000000008152600401620010129062001a83565b60405180910390fd5b3373ffffffffffffffffffffffffffffffffffffffff168173ffffffffffffffffffffffffffffffffffffffff1663c7c4ff466040518163ffffffff1660e01b815260040160206040518083038186803b1580156200107957600080fd5b505afa1580156200108e573d6000803e3d6000fd5b505050506040513d601f19601f82011682018060405250810190620010b4919062001644565b73ffffffffffffffffffffffffffffffffffffffff1614156200110e576040517f08c379a0000000000000000000000000000000000000000000000000000000008152600401620011059062001aa5565b60405180910390fd5b3373ffffffffffffffffffffffffffffffffffffffff168173ffffffffffffffffffffffffffffffffffffffff166338af3eed6040518163ffffffff1660e01b815260040160206040518083038186803b1580156200116c57600080fd5b505afa15801562001181573d6000803e3d6000fd5b505050506040513d601f19601f82011682018060405250810190620011a7919062001644565b73ffffffffffffffffffffffffffffffffffffffff16141562001201576040517f08c379a0000000000000000000000000000000000000000000000000000000008152600401620011f89062001ae9565b60405180910390fd5b6001600360008473ffffffffffffffffffffffffffffffffffffffff1673ffffffffffffffffffffffffffffffffffffffff16815260200190815260200160002060020160003373ffffffffffffffffffffffffffffffffffffffff1673ffffffffffffffffffffffffffffffffffffffff16815260200190815260200160002060006101000a81548160ff02191690836002811115620012cb577f4e487b7100000000000000000000000000000000000000000000000000000000600052602160045260246000fd5b02179055506001600360008473ffffffffffffffffffffffffffffffffffffffff1673ffffffffffffffffffffffffffffffffffffffff168152602001908152602001600020600001600082825462001325919062001bfa565b925050819055507f74aee70ff0c1f965f958c04aaf3ae32d5b64ef243749268cc467dbbe218d49de338360016040516200136293929190620019c4565b60405180910390a160038060008473ffffffffffffffffffffffffffffffffffffffff1673ffffffffffffffffffffffffffffffffffffffff16815260200190815260200160002060000154141562001418578173ffffffffffffffffffffffffffffffffffffffff166312424e3f6040518163ffffffff1660e01b8152600401600060405180830381600087803b158015620013fe57600080fd5b505af115801562001413573d6000803e3d6000fd5b505050505b5050565b60003330836040516200142f9062001582565b6200143d9392919062001987565b604051809103906000f0801580156200145a573d6000803e3d6000fd5b50905060008190508073ffffffffffffffffffffffffffffffffffffffff166108fc6009600a346200148d919062001c57565b62001499919062001c8f565b9081150290604051600060405180830381858888f19350505050158015620014c5573d6000803e3d6000fd5b506001819080600181540180825580915050600190039060005260206000200160009091909190916101000a81548173ffffffffffffffffffffffffffffffffffffffff021916908373ffffffffffffffffffffffffffffffffffffffff1602179055507fdc172423e65e4eb718110c42ad3b66ac4b0a613e4d07bfb55f2477f2d1bf34eb816040516200155a91906200194d565b60405180910390a1346002600082825462001576919062001bfa565b92505081905550505050565b6107d68062001fc183390190565b600081359050620015a18162001f72565b92915050565b600081359050620015b88162001f8c565b92915050565b600081519050620015cf8162001f8c565b92915050565b600081359050620015e68162001fa6565b92915050565b600060208284031215620015ff57600080fd5b60006200160f8482850162001590565b91505092915050565b6000602082840312156200162b57600080fd5b60006200163b84828501620015a7565b91505092915050565b6000602082840312156200165757600080fd5b60006200166784828501620015be565b91505092915050565b600080604083850312156200168457600080fd5b6000620016948582860162001590565b9250506020620016a78582860162001590565b9150509250929050565b600060208284031215620016c457600080fd5b6000620016d484828501620015d5565b91505092915050565b6000620016eb838362001722565b60208301905092915050565b600062001705838362001744565b60208301905092915050565b6200171c8162001d63565b82525050565b6200172d8162001d04565b82525050565b6200173e8162001d04565b82525050565b6200174f8162001cf0565b82525050565b620017608162001cf0565b82525050565b6000620017738262001b97565b6200177f818562001bc7565b93506200178c8362001b77565b8060005b83811015620017c3578151620017a78882620016f7565b9750620017b48362001bad565b92505060018101905062001790565b5085935050505092915050565b6000620017dd8262001ba2565b620017e9818562001bd8565b9350620017f68362001b87565b8060005b838110156200182d578151620018118882620016dd565b97506200181e8362001bba565b925050600181019050620017fa565b5085935050505092915050565b620018458162001d18565b82525050565b620018568162001d77565b82525050565b60006200186b601f8362001be9565b9150620018788262001e8e565b602082019050919050565b600062001892601e8362001be9565b91506200189f8262001eb7565b602082019050919050565b6000620018b960168362001be9565b9150620018c68262001ee0565b602082019050919050565b6000620018e060208362001be9565b9150620018ed8262001f09565b602082019050919050565b60006200190760188362001be9565b9150620019148262001f32565b602082019050919050565b6200192a8162001d59565b82525050565b600060208201905062001947600083018462001755565b92915050565b600060208201905062001964600083018462001711565b92915050565b600060208201905062001981600083018462001733565b92915050565b60006060820190506200199e600083018662001733565b620019ad602083018562001755565b620019bc604083018462001733565b949350505050565b6000606082019050620019db600083018662001755565b620019ea602083018562001711565b620019f960408301846200184b565b949350505050565b6000602082019050818103600083015262001a1d818462001766565b905092915050565b6000602082019050818103600083015262001a418184620017d0565b905092915050565b600060208201905062001a6060008301846200183a565b92915050565b600060208201905062001a7d60008301846200184b565b92915050565b6000602082019050818103600083015262001a9e816200185c565b9050919050565b6000602082019050818103600083015262001ac08162001883565b9050919050565b6000602082019050818103600083015262001ae281620018aa565b9050919050565b6000602082019050818103600083015262001b0481620018d1565b9050919050565b6000602082019050818103600083015262001b2681620018f8565b9050919050565b600060208201905062001b4460008301846200191f565b92915050565b600060408201905062001b6160008301856200191f565b62001b7060208301846200191f565b9392505050565b6000819050602082019050919050565b6000819050602082019050919050565b600081519050919050565b600081519050919050565b6000602082019050919050565b6000602082019050919050565b600082825260208201905092915050565b600082825260208201905092915050565b600082825260208201905092915050565b600062001c078262001d59565b915062001c148362001d59565b9250827fffffffffffffffffffffffffffffffffffffffffffffffffffffffffffffffff0382111562001c4c5762001c4b62001e01565b5b828201905092915050565b600062001c648262001d59565b915062001c718362001d59565b92508262001c845762001c8362001e30565b5b828204905092915050565b600062001c9c8262001d59565b915062001ca98362001d59565b9250817fffffffffffffffffffffffffffffffffffffffffffffffffffffffffffffffff048311821515161562001ce55762001ce462001e01565b5b828202905092915050565b600062001cfd8262001d39565b9050919050565b600062001d118262001d39565b9050919050565b60008115159050919050565b600081905062001d348262001f5b565b919050565b600073ffffffffffffffffffffffffffffffffffffffff82169050919050565b6000819050919050565b600062001d708262001d8b565b9050919050565b600062001d848262001d24565b9050919050565b600062001d988262001d9f565b9050919050565b600062001dac8262001d39565b9050919050565b600062001dc08262001d59565b91507fffffffffffffffffffffffffffffffffffffffffffffffffffffffffffffffff82141562001df65762001df562001e01565b5b600182019050919050565b7f4e487b7100000000000000000000000000000000000000000000000000000000600052601160045260246000fd5b7f4e487b7100000000000000000000000000000000000000000000000000000000600052601260045260246000fd5b7f4e487b7100000000000000000000000000000000000000000000000000000000600052602160045260246000fd5b7f5468697320616464726573732068617320616c726561647920766f7465642100600082015250565b7f4465706f7369746f72206e6f7420616c6c6f77656420746f20766f7465210000600082015250565b7f4f6e6c79206d656d626572732063616e20766f74652100000000000000000000600082015250565b7f42656e6566696369617279206e6f7420616c6c6f77656420746f20766f746521600082015250565b7f4164647265737320616c72656164792062656c6f6e6773210000000000000000600082015250565b6003811062001f6f5762001f6e62001e5f565b5b50565b62001f7d8162001cf0565b811462001f8957600080fd5b50565b62001f978162001d04565b811462001fa357600080fd5b50565b62001fb18162001d59565b811462001fbd57600080fd5b5056fe60806040526040516107d63803806107d683398181016040528101906100259190610119565b826000806101000a81548173ffffffffffffffffffffffffffffffffffffffff021916908373ffffffffffffffffffffffffffffffffffffffff16021790555080600160006101000a81548173ffffffffffffffffffffffffffffffffffffffff021916908373ffffffffffffffffffffffffffffffffffffffff16021790555081600260006101000a81548173ffffffffffffffffffffffffffffffffffffffff021916908373ffffffffffffffffffffffffffffffffffffffff1602179055505050506101da565b6000815190506100fe816101ac565b92915050565b600081519050610113816101c3565b92915050565b60008060006060848603121561012e57600080fd5b600061013c86828701610104565b935050602061014d868287016100ef565b925050604061015e86828701610104565b9150509250925092565b60006101738261018c565b9050919050565b60006101858261018c565b9050919050565b600073ffffffffffffffffffffffffffffffffffffffff82169050919050565b6101b581610168565b81146101c057600080fd5b50565b6101cc8161017a565b81146101d757600080fd5b50565b6105ed806101e96000396000f3fe6080604052600436106100595760003560e01c806312424e3f14610065578063200d2ed21461007c57806338af3eed146100a7578063a3fdfee3146100d2578063c7c4ff46146100e9578063fe25e00a1461011457610060565b3661006057005b600080fd5b34801561007157600080fd5b5061007a61013f565b005b34801561008857600080fd5b5061009161028c565b60405161009e91906104cb565b60405180910390f35b3480156100b357600080fd5b506100bc61029f565b6040516100c991906104b0565b60405180910390f35b3480156100de57600080fd5b506100e76102c5565b005b3480156100f557600080fd5b506100fe61040f565b60405161010b91906104b0565b60405180910390f35b34801561012057600080fd5b50610129610433565b6040516101369190610495565b60405180910390f35b600260009054906101000a900473ffffffffffffffffffffffffffffffffffffffff1673ffffffffffffffffffffffffffffffffffffffff163373ffffffffffffffffffffffffffffffffffffffff161461019957600080fd5b6001600260146101000a81548160ff021916908360028111156101e5577f4e487b7100000000000000000000000000000000000000000000000000000000600052602160045260246000fd5b02179055507f3ad93af63cb7967b23e4fb500b7d7d28b07516325dcf341f88bebf959d82c1cb4760405161021991906104e6565b60405180910390a1600160009054906101000a900473ffffffffffffffffffffffffffffffffffffffff1673ffffffffffffffffffffffffffffffffffffffff166108fc479081150290604051600060405180830381858888f19350505050158015610289573d6000803e3d6000fd5b50565b600260149054906101000a900460ff1681565b600160009054906101000a900473ffffffffffffffffffffffffffffffffffffffff1681565b600260009054906101000a900473ffffffffffffffffffffffffffffffffffffffff1673ffffffffffffffffffffffffffffffffffffffff163373ffffffffffffffffffffffffffffffffffffffff161461031f57600080fd5b60028060146101000a81548160ff0219169083600281111561036a577f4e487b7100000000000000000000000000000000000000000000000000000000600052602160045260246000fd5b02179055507f7e46dab6301cb35d8155d120339f166b39f0acf27f2a9a284977d4902c30aef54760405161039e91906104e6565b60405180910390a160008054906101000a900473ffffffffffffffffffffffffffffffffffffffff1673ffffffffffffffffffffffffffffffffffffffff166108fc479081150290604051600060405180830381858888f1935050505015801561040c573d6000803e3d6000fd5b50565b60008054906101000a900473ffffffffffffffffffffffffffffffffffffffff1681565b600260009054906101000a900473ffffffffffffffffffffffffffffffffffffffff1681565b61046281610513565b82525050565b61047181610501565b82525050565b61048081610562565b82525050565b61048f81610558565b82525050565b60006020820190506104aa6000830184610468565b92915050565b60006020820190506104c56000830184610459565b92915050565b60006020820190506104e06000830184610477565b92915050565b60006020820190506104fb6000830184610486565b92915050565b600061050c82610538565b9050919050565b600061051e82610538565b9050919050565b6000819050610533826105a3565b919050565b600073ffffffffffffffffffffffffffffffffffffffff82169050919050565b6000819050919050565b600061056d82610525565b9050919050565b7f4e487b7100000000000000000000000000000000000000000000000000000000600052602160045260246000fd5b600381106105b4576105b3610574565b5b5056fea2646970667358221220741330f576e54ef1d40d897802a6e8a073f6ac5a3843b9c1d31963d66ef7454564736f6c63430008040033a264697066735822122059f1c72480b277c60d986ed3ab643adccac676c2add2691520b60b1a850d790264736f6c63430008040033",
  "linkReferences": {},
  "deployedLinkReferences": {}
}