{
  "_format": "hh-sol-artifact-1",
  "contractName": "Escrow",
  "sourceName": "contracts/Escrow.sol",
  "abi": [
    {
      "inputs": [
        {
          "internalType": "address payable",
          "name": "_depositor",
          "type": "address"
        },
        {
          "internalType": "address",
          "name": "_arbiter",
          "type": "address"
        },
        {
          "internalType": "address payable",
          "name": "_beneficiary",
          "type": "address"
        }
      ],
      "stateMutability": "payable",
      "type": "constructor"
    },
    {
      "anonymous": false,
      "inputs": [
        {
          "indexed": false,
          "internalType": "uint256",
          "name": "_balance",
          "type": "uint256"
        }
      ],
      "name": "Approved",
      "type": "event"
    },
    {
      "anonymous": false,
      "inputs": [
        {
          "indexed": false,
          "internalType": "uint256",
          "name": "_balance",
          "type": "uint256"
        }
      ],
      "name": "Denied",
      "type": "event"
    },
    {
      "inputs": [],
      "name": "approve",
      "outputs": [],
      "stateMutability": "nonpayable",
      "type": "function"
    },
    {
      "inputs": [],
      "name": "arbiter",
      "outputs": [
        {
          "internalType": "address",
          "name": "",
          "type": "address"
        }
      ],
      "stateMutability": "view",
      "type": "function"
    },
    {
      "inputs": [],
      "name": "beneficiary",
      "outputs": [
        {
          "internalType": "address payable",
          "name": "",
          "type": "address"
        }
      ],
      "stateMutability": "view",
      "type": "function"
    },
    {
      "inputs": [],
      "name": "deny",
      "outputs": [],
      "stateMutability": "nonpayable",
      "type": "function"
    },
    {
      "inputs": [],
      "name": "depositor",
      "outputs": [
        {
          "internalType": "address payable",
          "name": "",
          "type": "address"
        }
      ],
      "stateMutability": "view",
      "type": "function"
    },
    {
      "inputs": [],
      "name": "status",
      "outputs": [
        {
          "internalType": "enum Escrow.EscrowStatus",
          "name": "",
          "type": "uint8"
        }
      ],
      "stateMutability": "view",
      "type": "function"
    },
    {
      "stateMutability": "payable",
      "type": "receive"
    }
  ],
  "bytecode": "0x60806040526040516107d63803806107d683398181016040528101906100259190610119565b826000806101000a81548173ffffffffffffffffffffffffffffffffffffffff021916908373ffffffffffffffffffffffffffffffffffffffff16021790555080600160006101000a81548173ffffffffffffffffffffffffffffffffffffffff021916908373ffffffffffffffffffffffffffffffffffffffff16021790555081600260006101000a81548173ffffffffffffffffffffffffffffffffffffffff021916908373ffffffffffffffffffffffffffffffffffffffff1602179055505050506101da565b6000815190506100fe816101ac565b92915050565b600081519050610113816101c3565b92915050565b60008060006060848603121561012e57600080fd5b600061013c86828701610104565b935050602061014d868287016100ef565b925050604061015e86828701610104565b9150509250925092565b60006101738261018c565b9050919050565b60006101858261018c565b9050919050565b600073ffffffffffffffffffffffffffffffffffffffff82169050919050565b6101b581610168565b81146101c057600080fd5b50565b6101cc8161017a565b81146101d757600080fd5b50565b6105ed806101e96000396000f3fe6080604052600436106100595760003560e01c806312424e3f14610065578063200d2ed21461007c57806338af3eed146100a7578063a3fdfee3146100d2578063c7c4ff46146100e9578063fe25e00a1461011457610060565b3661006057005b600080fd5b34801561007157600080fd5b5061007a61013f565b005b34801561008857600080fd5b5061009161028c565b60405161009e91906104cb565b60405180910390f35b3480156100b357600080fd5b506100bc61029f565b6040516100c991906104b0565b60405180910390f35b3480156100de57600080fd5b506100e76102c5565b005b3480156100f557600080fd5b506100fe61040f565b60405161010b91906104b0565b60405180910390f35b34801561012057600080fd5b50610129610433565b6040516101369190610495565b60405180910390f35b600260009054906101000a900473ffffffffffffffffffffffffffffffffffffffff1673ffffffffffffffffffffffffffffffffffffffff163373ffffffffffffffffffffffffffffffffffffffff161461019957600080fd5b6001600260146101000a81548160ff021916908360028111156101e5577f4e487b7100000000000000000000000000000000000000000000000000000000600052602160045260246000fd5b02179055507f3ad93af63cb7967b23e4fb500b7d7d28b07516325dcf341f88bebf959d82c1cb4760405161021991906104e6565b60405180910390a1600160009054906101000a900473ffffffffffffffffffffffffffffffffffffffff1673ffffffffffffffffffffffffffffffffffffffff166108fc479081150290604051600060405180830381858888f19350505050158015610289573d6000803e3d6000fd5b50565b600260149054906101000a900460ff1681565b600160009054906101000a900473ffffffffffffffffffffffffffffffffffffffff1681565b600260009054906101000a900473ffffffffffffffffffffffffffffffffffffffff1673ffffffffffffffffffffffffffffffffffffffff163373ffffffffffffffffffffffffffffffffffffffff161461031f57600080fd5b60028060146101000a81548160ff0219169083600281111561036a577f4e487b7100000000000000000000000000000000000000000000000000000000600052602160045260246000fd5b02179055507f7e46dab6301cb35d8155d120339f166b39f0acf27f2a9a284977d4902c30aef54760405161039e91906104e6565b60405180910390a160008054906101000a900473ffffffffffffffffffffffffffffffffffffffff1673ffffffffffffffffffffffffffffffffffffffff166108fc479081150290604051600060405180830381858888f1935050505015801561040c573d6000803e3d6000fd5b50565b60008054906101000a900473ffffffffffffffffffffffffffffffffffffffff1681565b600260009054906101000a900473ffffffffffffffffffffffffffffffffffffffff1681565b61046281610513565b82525050565b61047181610501565b82525050565b61048081610562565b82525050565b61048f81610558565b82525050565b60006020820190506104aa6000830184610468565b92915050565b60006020820190506104c56000830184610459565b92915050565b60006020820190506104e06000830184610477565b92915050565b60006020820190506104fb6000830184610486565b92915050565b600061050c82610538565b9050919050565b600061051e82610538565b9050919050565b6000819050610533826105a3565b919050565b600073ffffffffffffffffffffffffffffffffffffffff82169050919050565b6000819050919050565b600061056d82610525565b9050919050565b7f4e487b7100000000000000000000000000000000000000000000000000000000600052602160045260246000fd5b600381106105b4576105b3610574565b5b5056fea2646970667358221220741330f576e54ef1d40d897802a6e8a073f6ac5a3843b9c1d31963d66ef7454564736f6c63430008040033",
  "linkReferences": {},
  "deployedLinkReferences": {}
}